:020000040800F2
:10000000001000205D0F0008AD0F0008AD0F0008C4
:1000100000000000000000000000000000000000E0
:10002000000000000000000000000000AD0F00080C
:100030000000000000000000AD0F0008AD0F000838
:10004000AD0F0008AD0F0008AD0F0008AD0F0008A0
:10005000AD0F0008AD0F0008AD0F0008AD0F000890
:1000600000000000AD0F0008AD0F0008AD0F000844
:10007000AD0F0008AD0F0008AD0F00080000000034
:10008000AD0F0008AD0F000800000000AD0F000824
:10009000AD0F0008AD0F0008AD0F0008AD0F000850
:1000A000AD0F0008AD0F0008AD0F0008250F0008C8
:1000B000AD0F0008AD0F000800000000AD0F0008F4
:1000C00010B5064C2378002B07D1054B002B02D02E
:1000D000044800E000BF0123237010BD9000002001
:1000E0000000000038100008044B10B5002B03D0AE
:1000F0000349044800E000BF10BDC04600000000F6
:100100009400002038100008002243088B4274D36A
:1001100003098B425FD3030A8B4244D3030B8B4208
:1001200028D3030C8B420DD3FF22090212BA030C11
:100130008B4202D31212090265D0030B8B4219D3F2
:1001400000E0090AC30B8B4201D3CB03C01A524112
:10015000830B8B4201D38B03C01A5241430B8B425A
:1001600001D34B03C01A5241030B8B4201D30B0343
:10017000C01A5241C30A8B4201D3CB02C01A52416A
:10018000830A8B4201D38B02C01A5241430A8B422D
:1001900001D34B02C01A5241030A8B4201D30B0216
:1001A000C01A5241CDD2C3098B4201D3CB01C01A30
:1001B000524183098B4201D38B01C01A524143093A
:1001C0008B4201D34B01C01A524103098B4201D328
:1001D0000B01C01A5241C3088B4201D3CB00C01A95
:1001E000524183088B4201D38B00C01A524143080D
:1001F0008B4201D34B00C01A5241411A00D2014632
:10020000524110467047FFE701B5002000F006F8A4
:1002100002BDC0460029F7D076E770477047C04658
:1002200080230F4ADB0251690B430C2153610D4BB4
:100230001A688A431A6004221868024302201A606E
:100240005A6882435A609A688A439A60DA688A4395
:10025000DA608022996992020A439A617047C04627
:100260000010024000040048F0B59DB000F01CFDF5
:1002700000F08AF9FFF7D4FF9620800100F056FDC8
:1002800090211022C90507A800F098FBFA24A54880
:1002900000F0FAFD0225E40007A800F04EFC07A8D4
:1002A00000F054FC002849D005A907A800F0B9FCCB
:1002B0009D4800F0E9FD2022082105A800F0FAFD84
:1002C0009A4F380000F0E0FD05A800F095F90028ED
:1002D0002DD0974800F0D8FD012540210CA800F052
:1002E000A7FD06000328F8D1020092490CA800F0EF
:1002F00083FE041E2FD105A907A800F083F900286A
:10030000EBD08D4E22003300009505A907A800F020
:100310008BF900281DD0894800F0B6FD300022007E
:10032000290000F0C7FD814800F0AEFDD5E7844804
:1003300000F0AAFD200000F053F9ADE7814800F07D
:10034000A3FD200000F04CF97F4A53696B405361D4
:10035000A2E77E48E8E732007D490CA800F04CFE99
:10036000041E2FD105A907A800F04CF90028B4D02D
:100370008023714E00932200330005A907A800F0E6
:1003800053F90028E5D0734800F07EFD02ABDC7223
:100390000B2302A81B1818000022290000F08AFD78
:1003A0006D4800F071FD02ABD87A2C22082130187C
:1003B000083400F07FFDE4B25C4800F065FD802C5D
:1003C000E4D18AE7320065490CA800F015FE041E4E
:1003D00040D105A907A800F015F9002800D17CE755
:1003E000554EE3B2039301333370A2B2330000954C
:1003F00005A907A800F0DFF902AB0390D872002826
:1004000013D00722E3B256481340934200D0554818
:10041000013400F039FD0136802CE2D102ABDB7AE9
:10042000002B00D159E750487EE7380000F02CFD42
:100430004E4800F029FD4E4800F026FD0B2302A88F
:100440001B1818002900039A00F034FD380000F052
:100450001BFDE3E7320047490CA800F0CDFD041E68
:1004600027D105A907A800F0CDF8002800D134E76E
:10047000414BE200D31805A992B207A800F0FDF89D
:100480000B2302AA9B18187000280DD0661C0F2C95
:1004900003D1334800F0F8FCC5E7324800F0F4FC23
:1004A0003400102EE4D118E7204800F0EDFC2F486E
:1004B0003AE7320031490CA800F09EFD041E1CD121
:1004C0001D4B1E000134E4B21C700133802CF9D1A5
:1004D00005A907A800F096F8002800D1FDE6330032
:1004E0000022009405A907A800F065F90B2302AAD1
:1004F0009B181870002896D1D9E7320020490CA823
:1005000000F07AFD002800D0E7E605A907A800F072
:1005100079F8002800D1E0E605A907A800F09BF9CA
:10052000184801E75010000873100008A6100008D2
:100530008C100008E2100008AC000020E610000853
:10054000A9100008CA10000800040048F2100008B2
:1005500003110008071100081511000819110008FF
:100560001D1100082211000846110008251100087D
:100570003C1100085F110008000000206311000812
:10058000671100086B11000880230C4A1B01916958
:100590000B4393612F220A4B0A499A620A4ADA6294
:1005A00000225A629A680A4001219A601A680A4336
:1005B0001A601A690A42FCD07047C0460010024017
:1005C000002C0140FFBFFFFFFFFF00000022034B94
:1005D0005A625A6A8242FCD97047C046002C0140D8
:1005E00070B5FA250400AD00002C00D170BD2800C4
:1005F000013CFFF7EBFFF7E700782D384342584105
:10060000C0B2704770B50B7804000D0000262D2B8A
:1006100008D100F0E3F9B04204D12900200000F035
:10062000F0FA0136300070BDF7B5019308AB1C88B5
:10063000060013191500802B02DD8024A41AA4B231
:100640003000FFF7DFFF071E0FD0F021300000F071
:1006500037FAE9B2300000F033FA290A300000F02E
:100660002FFA019D2C19A54201D13800FEBD3000A2
:1006700000F037FA28700135F5E7F0B58BB0039339
:100680000B7804000D00002001922D2B02D1782A56
:1006900002D900200BB0F0BD0723019F9F43F8D182
:1006A0000B2006AE08333370019B0399737004ABC3
:1006B0000822C018B77000F0ADFC29002000FFF739
:1006C000A1FF0028E5D00B223100200000F01BFA2A
:1006D0000222200005A900F023FA3B000B21300084
:1006E00005AA00F0CDFA43425841AA23C7B233709D
:1006F000A83B290020000293FFF784FF0028C8D000
:1007000006AE2000317800F0DBF9092104ABC918EE
:100710000322200000F004FAF378072B01D1002F08
:1007200015D00822200007A900F0FAF902222000C3
:1007300005A900F0F5F900230C21300005AA00F00E
:100740009FFA00281ED10127029BBB4218D15523D6
:1007500006AE290020003370FFF754FF002898D020
:1007600004223100200000F0CEF90F20FFF738FFFF
:10077000200000F0B6F9AA3843425841C0B289E7D8
:100780000123B6E7B37872781B029B18019A9A424C
:1007900000D07EE7F378072B00D07AE7002306AA83
:1007A0009A181179039AD25C914200D071E7013313
:1007B000082BF4D1CBE7F0B589B005930EAB1C88BC
:1007C0001500131903900491802B02DD8024A41AD4
:1007D000A4B200230293002C01D101200DE00723D5
:1007E0002F009F43013300933A000499039806AB0E
:1007F000FFF71AFF002802D1002009B0F0BDEB1B63
:100800009BB2082C04D8E21892B22600082A02D91A
:100810007E1B0836B6B206AAD318029AB21892B254
:100820009446029A62450CD13A000499039806ABAB
:10083000FFF723FF0028DFD0AD19A41BADB2A4B28F
:10084000C9E7029A029905980131805C8AB2187052
:1008500002920133E5E773B5082205000E006846F1
:10086000FF2100F0E0FB0024220008346B46310039
:100870002800A4B2FFF701FF802CF5D176BDF0B5BA
:100880000023012403250A001A41224205D02F002B
:100890005E00B7400268BA4302600133102BF2D108
:1008A000F0BDF0B50023012403260A001A412242BC
:1008B00008D037005D00AF400268BA432700AF4060
:1008C0003A4302600133102BEFD1F0BDB8231B0671
:1008D000C0180123800A113080B28340024A516956
:1008E0000B4353617047C04600100240F0B587B01B
:1008F00002930CAB1B78944603930DAB1B78013A23
:100900000493B8231B06C3189B0A1133DBB2009370
:100910000023D2B201910592019A01211A410A42A3
:1009200028D00E009E40009A15495400625A324366
:100930006252032459008C40C268E743A243150069
:10094000039A8A401543C5600268A24364468C40FE
:1009500022430260059A012A0CD8029C42689C40FE
:10096000B243A4B22243426082683A40049F8F405F
:100970003A4382600133102BCED107B0F0BDC046A0
:100980002C010020F0B585B01E000AAB1B780400D6
:1009900002930BAB1B780D001700039300290BD0BB
:1009A000FFF794FF039B3A000193029B29000093F9
:1009B00020003300FFF79AFF05B0F0BD022373B5A6
:1009C0000E001500019300230400290030000122CD
:1009D0000093FFF7D7FF2660A58073BD10B5040014
:1009E0000068A18843698B434361FFF75AFFFA20EF
:1009F0004000FFF7EBFD2068A18843690B4343618A
:100A0000FFF73DFF4620FFF7E1FD2368A4881B693F
:100A1000CD201C40631E9C414000E4B2FFF7D6FD90
:100A2000200010BD10B504000A00A1880068CB4367
:100A3000002A14D0426913404361FFF732FF0A20B5
:100A4000FFF7C4FD37202268A38851690B43536127
:100A5000FFF7BCFDA1882068FFF711FF10BD4269B8
:100A600013404361FFF71DFF4120FFF7AFFD2268F0
:100A7000A388516905200B435361E9E710B50400D1
:100A80000068A18843698B434361FFF70AFF022096
:100A9000FFF79CFD2068A18843690B434361FFF782
:100AA000EEFE0A20FFF792FD2368A4881B6932201E
:100AB0001C40631E9C41E4B2FFF788FD200010BD7E
:100AC000F8B506000D0009240127013CE4B2002C12
:100AD00000D1F8BD290030003940FFF7A3FF6D08B1
:100AE000F3E770B5060009250024013DEDB2002DA5
:100AF00001D1200070BD3000FFF7C0FF6408C001C5
:100B00000443E4B2F1E770B506000C008D18AC4266
:100B100000D170BD21783000FFF7D2FF0134F6E735
:100B200070B506000C008D18AC4200D170BD3000CD
:100B3000FFF7D7FF20700134F6E7002110B5082237
:100B4000C1800172093000F06EFA10BDF0B5037A71
:100B5000040085B0002B03D1FFF740FF051E04D031
:100B60000020E080207205B0F0BD01273E00F0219A
:100B70002000FFF7A5FF01952000FFF77FFF0390FE
:100B800002902000FFF77AFF039B012B0ED1012872
:100B900016D1402EE4D9019BA371002B01D1013362
:100BA0002372637A002BDBD00120DCE70399621902
:100BB000537A814222D1A179B14217D91F4217D06D
:100BC0006219537A3B435372012302937F00200042
:100BD00002990136FFB2FFF725FFF6B2002FCBD105
:100BE0000135EDB2082DD4D00127C5E7B142E7D0D9
:100BF000002101960291082E00D8E671BB43537282
:100C0000E4E770B50C00552126000500FFF758FFFA
:100C10000836217828000134FFF752FFB442F8D19A
:100C200070BD00230930C25CCA540133082BFAD1CD
:100C300070470000F7B500240090FF2610000F2732
:100C40000D4D0191019AA3B29A4200D8FEBD009BBE
:100C50001B5D4340190031403B400A09EB5CAA5C34
:100C6000000A934202D0054B584080B28B01C90163
:100C7000594048400134E5E78411000801C0FFFFF6
:100C800010B514001A00FFF7D5FFC34321789AB2BC
:100C9000DBB20020994204D16078120A801A4342E4
:100CA0005841C0B210BD000010221D4B19680A4304
:100CB0001A60012219680A431A608022194B5202F5
:100CC00019680A431A608022920219681142FCD006
:100CD000DA6A1549DA625A680A40F0215A605A689D
:100CE00089030A405A608822596852030A435A60AD
:100CF0008022196852040A431A60802292041968FB
:100D00001142FCD003215A688A435A600222596872
:100D10000A430C215A605A680A40082AFBD17047DE
:100D20000020024000100240FFFFFEFF80221F4B08
:100D3000010058699202024310B55A6180229869F5
:100D4000D20102439A619023A022DB051868920326
:100D500002431A608822586A520002435A62144BB6
:100D60004808C018FFF7D0F9124B1349D8601A6829
:100D7000C6240A401A600C22196880200A431A60AF
:100D800020221968A4000A430C491A600A59000677
:100D90001202120A02430A51802212050A6001223D
:100DA00007490A7319680A431A6010BD001002400F
:100DB000006CDC0200380140FFCFFFFF00E100E0E3
:100DC0008000002010B50C4B1A889988002A03D1A6
:100DD0005C8810008C420DD0D888884201D1002157
:100DE000998099889868405601319980002A01D0ED
:100DF000013A1A80C0B210BD8000002030B50B4A05
:100E0000010093881088D4889268002800D130BDF2
:100E10009C4200D10023D55C8D4204D001330138BF
:100E20009BB280B2F1E70120F1E7C04680000020CC
:100E3000F8B5144F06003C880D00002C1DD00D2085
:100E4000FFF7DCFF002804D00A20FFF7D7FF0028B7
:100E500002D1FB88A34212D1002404E00A280AD060
:100E60000134A4B238706B1E37199C4203DAFFF7C5
:100E7000A9FF0D28F2D100233B702000F8BD00240B
:100E8000FBE7C0468000002010B5084B1B7B002B01
:100E900004D04021064A0378002B00D110BDD4694C
:100EA0000C42FCD09BB201301385F4E78000002097
:100EB00000380140F7B501900020184B1B7B83429E
:100EC00006D04C1E4027A446154B84B2A14200D840
:100ED000F7BD019C265C340925003035392D01D938
:100EE000373425000F24264034003034392C00D903
:100EF0000734DE693E42FCD0ADB21D85DD693D425E
:100F0000FCD0A4B21C85002A06D0844504DDDC692F
:100F10003C42FCD094B21C850130D6E78000002012
:100F2000003801400A4BDA88198891420FD259885B
:100F3000914201D100225A80064A9868918C5A88C1
:100F400081545A8801325A801A8801321A807047B7
:100F50008000002000380140704700000D488546A1
:100F6000FFF7FAFF0C480D490D4A002302E0D45860
:100F7000C4500433C4188C42F9D30A4A0A4C0023E3
:100F800001E013600432A242FBD300F011F8FFF736
:100F90006BF9FEE700100020000000209000002008
:100FA0009C1100089000002084010020FEE7000052
:100FB00070B500260C4D0D4C641BA410A64209D13F
:100FC000002600F039F80A4D0A4C641BA410A64212
:100FD00005D170BDB300EB5898470136EEE7B3007A
:100FE000EB5898470136F2E7941100089411000875
:100FF000941100089811000830B500240139A2426C
:1010000001D1002005E0035D01340D5DAB42F6D057
:10101000581B30BD002310B59A4200D110BDCC5CE6
:10102000C4540133F8E703008218934200D170479B
:1010300019700133F9E70000F8B5C046F8BC08BCE8
:101040009E467047F8B5C046F8BC08BC9E4670473F
:101050005365616368696E672044533234333120CD
:10106000454550524F4D206465766963652E2E2E9E
:101070000D0A0044657669636520666F756E6420AD
:101080006F6E20312D776972653A2000497427739D
:101090002044533234333120454550524F4D206463
:1010A0006576696365210D0A0049742773206E6FA8
:1010B000742044533234333120454550524F4D2033
:1010C000646576696365210D0A004E6F206465765C
:1010D000696365206F6E204F6E6557697265210DDB
:1010E0000A002D7262005265616420627974653A6B
:1010F000200052656164696E67206572726F7221AB
:101100000D0A002D726D005265616420627974656C
:10111000733A0D0A00203A20002D77620023230D38
:101120000A00232300577269746520737461747513
:10113000733A204572726F722E0D0A004572726FFB
:101140007220233A200057726974652073746174A9
:1011500075733A20537563636573732E0D0A002D02
:10116000776D002D7777002D656D00457261736591
:10117000207374617475733A205375636365737378
:101180002E0D0A0000010100010000010100000114
:041190000001010059
:04119400E900000866
:04119800C10000088A
:10119C00A82436F7ABDB1A2C7CCC140086803000EC
:1011AC00D47E05380D126B0CBB6A8E0160E31633CE
:1011BC006BDD5EDCDD3497BB7402D0E303C6896C57
:1011CC0061CAD3FC6E95679645BAFE1F839925F0CC
:1011DC0004206FEF69DB1A00454C1692568737F3E3
:1011EC00D47E05070D126B0CBB6A8E0160E31600F2
:1011FC007CDD5EDCDD3497BB7724D5E713C08166DC
:10120C0069CFD1F9AE9B569348D3CD8426791A1960
:10121C00000000000000400042010020000000001F
:0400000508000F5D83
:00000001FF
