:020000040800F2
:1000000000100020D12F0008213000082130000806
:1000100000000000000000000000000000000000E0
:100020000000000000000000000000002130000877
:10003000000000000000000021300008213000080E
:10004000213000082130000821300008213000084C
:10005000213000082130000821300008213000083C
:100060000000000021300008213000082130000885
:100070002130000821300008213000080000000075
:100080002130000821300008000000002130000865
:1000900021300008213000082130000821300008FC
:1000A00021300008213000082130000821300008EC
:1000B0002130000821300008000000002130000835
:1000C00010B5064C2378002B07D1054B002B02D02E
:1000D000044800E000BF0123237010BD640000202D
:1000E00000000000CC350008044B10B5002B03D0F5
:1000F0000349044800E000BF10BDC04600000000F6
:1001000068000020CC350008002243088B4274D3DD
:1001100003098B425FD3030A8B4244D3030B8B4208
:1001200028D3030C8B420DD3FF22090212BA030C11
:100130008B4202D31212090265D0030B8B4219D3F2
:1001400000E0090AC30B8B4201D3CB03C01A524112
:10015000830B8B4201D38B03C01A5241430B8B425A
:1001600001D34B03C01A5241030B8B4201D30B0343
:10017000C01A5241C30A8B4201D3CB02C01A52416A
:10018000830A8B4201D38B02C01A5241430A8B422D
:1001900001D34B02C01A5241030A8B4201D30B0216
:1001A000C01A5241CDD2C3098B4201D3CB01C01A30
:1001B000524183098B4201D38B01C01A524143093A
:1001C0008B4201D34B01C01A524103098B4201D328
:1001D0000B01C01A5241C3088B4201D3CB00C01A95
:1001E000524183088B4201D38B00C01A524143080D
:1001F0008B4201D34B00C01A5241411A00D2014632
:10020000524110467047FFE701B5002000F0F0F8BA
:1002100002BDC0460029F7D076E7704703460B437E
:100220007FD4002243088B4274D303098B425FD3EF
:10023000030A8B4244D3030B8B4228D3030C8B421B
:100240000DD3FF22090212BA030C8B4202D3121201
:10025000090265D0030B8B4219D300E0090AC30BD6
:100260008B4201D3CB03C01A5241830B8B4201D383
:100270008B03C01A5241430B8B4201D34B03C01A6C
:100280005241030B8B4201D30B03C01A5241C30AE4
:100290008B4201D3CB02C01A5241830A8B4201D355
:1002A0008B02C01A5241430A8B4201D34B02C01A3F
:1002B0005241030A8B4201D30B02C01A5241CDD2E4
:1002C000C3098B4201D3CB01C01A524183098B422F
:1002D00001D38B01C01A524143098B4201D34B0118
:1002E000C01A524103098B4201D30B01C01A52417B
:1002F000C3088B4201D3CB00C01A524183088B4202
:1003000001D38B00C01A524143088B4201D34B00EA
:10031000C01A5241411A00D201465241104670475C
:100320005DE0CA0F00D04942031000D34042534061
:1003300000229C4603098B422DD3030A8B4212D321
:10034000FC22890112BA030A8B420CD38901921153
:100350008B4208D3890192118B4204D389013AD090
:10036000921100E08909C3098B4201D3CB01C01A65
:10037000524183098B4201D38B01C01A5241430978
:100380008B4201D34B01C01A524103098B4201D366
:100390000B01C01A5241C3088B4201D3CB00C01AD3
:1003A000524183088B4201D38B00C01A5241D9D2EB
:1003B00043088B4201D34B00C01A5241411A00D26C
:1003C0000146634652415B10104601D34042002B68
:1003D00000D54942704763465B1000D3404201B5E7
:1003E000002000F005F802BD0029F8D016E770479C
:1003F0007047C046844608006146FFE71FB500F01D
:1004000073FB002801D40021C8421FBD10B500F0C5
:10041000FFFA4042013010BD10B500F065FB002826
:1004200001DB002010BD012010BDC04610B500F05A
:100430005BFB002801DD002010BD012010BDC0467F
:1004400010B500F00BFB002801DC002010BD0120DE
:1004500010BDC04610B500F001FB002801DA0020F5
:1004600010BD012010BDC04670B500220C4B040029
:100470000D0001F085FD002804D12000290001F0C5
:10048000CDFC70BD064B00222000290001F034F99C
:1004900001F0C4FC80231B069C466044F1E7C04683
:1004A0000000E041F0B5C64643025B0A4E0245003B
:1004B0004F00DA00C40F9C46700A904600B52D0E1E
:1004C0003F0EC90FB6098C424BD0EA1B002A36DD1D
:1004D000002F61D0FF2D00D1ADE08023DB041E434F
:1004E0001B2A00DCD3E001204346181A430100D444
:1004F0008CE080018709380001F04CFD0538874009
:10050000854200DCB6E02D1AB3483840430704D0DA
:100510000F230340042B00D00430430100D478E0C3
:100520006A1CFE2D65D08001430A9C46D2B2634608
:10053000D0051843E407204380BCB846F0BD002A2C
:1005400035D07A1B002D00D0AFE04346002B00D100
:10055000A7E0531E012A00D12FE1FF2A69D01A001B
:10056000AAE0E91B002970DD002F37D0FF2D62D0F3
:100570008023DB041E431B2900DCB0E00120404443
:10058000430143D50135FF2D33D00123934A034066
:10059000400810401843B9E7002E00D183E0511EF7
:1005A000012A00D1D8E0FF2A45D00A0098E7FE27AB
:1005B0006A1C174200D086E0002D00D0B7E0434609
:1005C000002B00D1F3E00022002EB0D0981B430195
:1005D00000D4FAE043460C00F01A97E7002E00D151
:1005E000C8E04A1E012900D1AEE0FF2923D0110046
:1005F000C1E70023FF229C4699E7FE216A1C1142B5
:1006000077D0FF2AF5D0150046447008430700D084
:100610007EE7C308FF2D0ED05B025B0A9C46EAB260
:1006200085E7002E07D08022D203134203D0104268
:1006300001D10C000300002BDBD08020C003184345
:100640004002430A9C46FF2271E70029D5D07A1B5D
:10065000002D60D14346002B24D0531E012A73D0B5
:10066000FF2AE7D01A001B2A00DC85E001203D00AC
:10067000801985E720233A00451B38000135EA4000
:100680005D1BA840431E9841002510433EE72023F0
:1006900030009B1A31009840D140431E98410843D6
:1006A00022E70C0003001500B4E7FF2FC1D0802320
:1006B0004046DB04184380461B2A51DD01200C0014
:1006C0003D00301A12E743469F1B7B012BD4002FBD
:1006D00000D010E70023002400229C4627E72023B7
:1006E00032003000CA40591A8840431E98411043D6
:1006F00045E7002D4AD14346002B63D00022002E4F
:1007000000D114E730004044430100D47EE7324B6F
:10071000013518407AE7FF2F8CD080234146DB0457
:10072000194388469FE743460C00F71AE3E6424622
:10073000002A00D075E7002E00D07AE78023DB0383
:1007400000249C46FF22F2E630004044012543018C
:1007500000D45BE7022518E743460125981BC5E650
:10076000202344464046D4409A1A9040431E984164
:100770002043A4E70D004DE7202341464046D140E9
:100780009A1A9040431E9841084370E74246002A57
:1007900000D14FE7002E00D14DE78022D203134253
:1007A00000D148E7104200D045E7030043E7002EA0
:1007B00090D00C0084460022B9E643460C00F01AA3
:1007C000013593E684460022B1E6002800D01DE7FB
:1007D000002300249C46AAE6FFFFFFFBFFFFFF7DEE
:1007E000F0B54F464646D6464502C0B547000C1CFC
:1007F0006D0A3F0EC60F002F00D170E0FF2F00D111
:1008000075E0EB008025ED041D43002399469A46D0
:100810007F3F6002430A984663001B0EE40F002BE3
:100820004ED0FF2B46D04246D0008022D204024355
:10083000904600227F3B3100FF1A4B466140C9B20F
:1008400013430F2B00D9B5E06E489B00C3589F4659
:10085000002398462600454692465346022B00D177
:1008600089E0032B00D19EE0012B18D03B007F33A1
:10087000002B69DD6A0704D00F222A40042A00D029
:1008800004352A0103D5604B1D403B008033FE2B0D
:1008900000DD70E0AD016D0AD8B202E00E0000206C
:1008A0000025C0052843F6073043E0BCBA46B146F0
:1008B000A846F0BD4346002B3FD10222FF3F03E094
:1008C0004346002B2DD1012231004B466140C9B275
:1008D00013430F2B34D84D489B00C3589F46002D1F
:1008E00013D104239946033B00279A4691E7002D34
:1008F00005D108239946063BFF279A4689E70C2332
:100900009946093BFF279A4683E7280001F042FBFE
:100910007627431F9D4000237F4299469A463F1AFF
:1009200077E7404601F036FB4246431F9A40762364
:100930005B4290461B1A00227DE7FF2303227AE7E1
:100940000E00FF200025ACE70120C01A1B28A6DC02
:100950009E372A00BD40C2406B1E9D4115436B0768
:1009600004D00F232B40042B00D004356B0144D559
:100970000120002595E7FF20002592E7802500262D
:10098000FF20ED038DE7002398468020C003054239
:1009900009D04346034206D1454605436D02260071
:1009A000FF206D0A7DE78020C00305436D02FF2014
:1009B0006D0A76E742466B015001834219D21B2231
:1009C0000025013F01261C006D005B00002C01DBAF
:1009D000984201D81B1A3543013A002AF3D15A1E16
:1009E00093411D433B007F330E00002B00DD41E7A8
:1009F000AAE71A2201251B1AE4E7AD0100206D0ABF
:100A00004FE7C046E4350008FFFFFFF72436000833
:100A100070B5420045024E024C00C30F6D0A012022
:100A2000120E760A240EC90FFF2A06D0FF2C03D01F
:100A3000A24201D1B54206D070BD002DFCD1FF2CE1
:100A4000FAD1002EF8D18B4206D00120002AF3D132
:100A50002800431E9841EFE70020EDE770B5420003
:100A600045024E024C00C30F6D0A120E760A240E88
:100A7000C80FFF2A1BD0FF2C0ED0002A1BD1002C40
:100A800001D1002E1CD0002D0CD083421CD002219D
:100A9000581E0840013870BD002E22D1002AF4D122
:100AA000002DF2D10028F6D101204042F3E7002DBD
:100AB00017D1FF2CF0D0002CE7D1002EE5D1E6E7CE
:100AC0000020002DE7D0E2E7A24205DCEADBB542D8
:100AD00002D8E7D30020DEE7434258414000013806
:100AE000D9E702204042D6E770B5420045024E02E7
:100AF0004C00C30F6D0A120E760A240EC80FFF2A8F
:100B00000BD0FF2C0DD0002A1FD1002C16D1002EA7
:100B100014D10020002D10D009E0002D0CD1FF2CA5
:100B200013D1002E08D1002A08D0834212D002210E
:100B3000581E0840013800E0022070BD002DF4D19D
:100B40000028FAD101204042F7E7002CEDD1002E19
:100B5000EBD1ECE7A24205DCF2DBB54202D8EFD3E1
:100B60000020EAE74342584140000138E5E7C0462B
:100B7000F0B54F464646D64644024500C0B5640A25
:100B80000F1C2D0EC60F002D00D18DE0FF2D00D1C2
:100B900092E00023802099469A46E400C004044372
:100BA0007F3D7802430A98467B001B0EFF0F002B07
:100BB00000D170E0FF2B00D186E04246D0008022B9
:100BC0007F3BED180023D204024390469C4631003F
:100BD0004B467940681C0F2B1CD8764A9B00D35893
:100BE0009F4639004446E2465346022B0FD0032B62
:100BF00000D1D7E0012B37D100200024C0052043CD
:100C0000C9070843E0BCBA46B146A846F0BDFF207C
:100C10000024F3E7260C2404220C44462404240C6C
:100C2000434627001B0C574374435A435E43121933
:100C30003B0C9B189C4203D9802252029446664486
:100C40003F041A043F0CD2199401671EBC411B0CCF
:100C5000920E9B1914439B011C431B0100D49BE083
:100C6000012362081C40144302007F32002A64DD25
:100C7000630704D00F232340042B00D00434230146
:100C800003D502004C4B80321C40FE2ABFDCA4017D
:100C9000640AD0B2B2E74346002B3DD14A46013345
:100CA0001A4391469C4692E7002C29D10423994689
:100CB000033B00259A4674E7002C1BD10823994674
:100CC000063BFF259A466CE74346FF35002B0BD1C8
:100CD00002234A461A4391469C4678E75346310020
:100CE000022B00D083E792E703234A461A4391463A
:100CF0009C466CE70C239946093BFF259A4650E732
:100D0000200001F047F97625431F9C4000236D42E7
:100D100099469A462D1A44E7404601F03BF942466F
:100D2000431F9A4000232D1A90469C46763D4EE77D
:100D300080240021FF20E40360E701239B1A1B2B82
:100D400000DD59E722009E30DA4084401300621E25
:100D500094411C43630704D00F232340042B00D08D
:100D6000043463011AD50120002447E78020C00322
:100D7000044209D04346034206D144460443640278
:100D80003900FF20640A39E78020C003044364026D
:100D90003100FF20640A31E7280065E7A401002044
:100DA000640A2BE78020C00304436402FF20640A26
:100DB00024E7C04664360008FFFFFFF7F8B5CE46CB
:100DC000474643025B0A4E02DA009446720A914695
:100DD00045004A0080B52D0E1F00C40F120EC90F2A
:100DE000B609FF2A5BD0012041408C4239D0A81AB5
:100DF00000285ADD002A6AD0FF2D00D1D9E08022D8
:100E0000D20416431B2800DCE9E001206346181ACF
:100E1000430100D4B4E080018709380001F0BAF83A
:100E200005388740854200DCCCE02D1AB5483840B3
:100E3000430704D00F230340042B00D004304301A8
:100E400000D4A0E06A1CFE2D00D18DE08001470A8D
:100E5000D2B2D0053843E4072043C0BCB946B046FF
:100E6000F8BDA81A8046002845DD002A70D0FF2D65
:100E700000D19EE08023DB041E4343461B2B00DC95
:100E8000D2E00120604443017AD50135FF2D6BD0BB
:100E900001239D4A0340400810401843C8E7002E34
:100EA00020D08C4223D02800FF38002839D0571B8F
:100EB000002D00D09DE06346002B00D1DBE07B1EBF
:100EC000012F00D10DE1FF2F71D01F0098E0002EFF
:100ED00000D1A7E0421E012800D1E6E0FF2868D03B
:100EE00010008FE701204140A14200D07FE7FF20A2
:100EF00040428046A8444046002838D0511B002D6F
:100F000000D1AEE0FF2A00D1DFE080236046DB04A1
:100F1000184384461B2900DCD9E001201500801904
:100F2000B1E7FE206A1C104271D1002D00D0A6E06E
:100F30006346002B00D1D9E00022002E00D188E7C3
:100F4000981B430100D4E1E063460C00F01A6FE700
:100F5000002E00D1B7E00200013A012800D19CE048
:100F6000FF2826D0904688E7FF22002771E7FE2061
:100F70006A1C104264D0FF2AF6D01500664470083F
:100F8000430700D056E7C308FF2D12D05B025F0A6B
:100F9000EAB25EE76246002A00D196E0002E08D051
:100FA0008022D203134204D04846104201D10C00E3
:100FB0004B46002BD8D08027FF031F437F02FF2220
:100FC0007F0A46E720233A00451B38000135EA40F6
:100FD0005D1BA840431E98410025104328E72023AD
:100FE0001B1A32009E40C2403000431E98411043FD
:100FF0000CE7FF2ADBD080236046DB0418438446DD
:101000001B2F56DD01200C001500301A00E7634647
:101010009F1B7B013DD4002F00D0FEE60024002260
:10102000002716E70500AFE7320043464146DA40A5
:1010300020235B1A9E403000431E9841104321E755
:10104000002DA7D16346002B59D00022002E00D1DD
:10105000FFE630006044430192D52A4B0135184029
:101060008EE76346002B47D04B1E012915D0FF2980
:101070002BD019004EE70C004B463D0084E762463A
:10108000002A8BD1002E92D180270024FF22FF035B
:10109000DFE663460C00F71ABFE630006044012526
:1010A000430100D46CE70225F2E663460125981B54
:1010B000AEE6202364466046FC40DF1BB840431E7A
:1010C000984120439FE705005EE74B4671E72023E8
:1010D00065466046CD40591A8840431E98412843D2
:1010E0001CE763460C000125F01A91E6002E95D00E
:1010F0000C004F460022ACE64B460D0044E74F463D
:101100000022A6E6FFFFFFFBFFFFFF7D002800D0C7
:1011100036E7002400279CE643024A0240004900CB
:101120005B0A520A090E000EFF2806D00020FF2994
:1011300002D1531E9A4110007047FE38002BFBD19C
:10114000F4E7C04641024200C30F490A0020120ED4
:101150007E2A03DD9D2A02DD094A98187047802007
:1011600000040143952A07DC9620821AD1404842A8
:10117000002BF3D10800F1E7963A9140F7E7C0461B
:10118000FFFFFF7FF8B5002813D0C317C6185E40D5
:10119000C40F300000F0FEFE9E2305001B1A962BA4
:1011A0000FDC082801DD083DAE407602760AD8B291
:1011B00002E0002400200026C0053043E40720435D
:1011C000F8BD992B0CDD05223100121AD1400A001E
:1011D000010030001B318840411E88410243160047
:1011E000052D12DC31000D4F3940720709D00F2058
:1011F0003040042805D004314A0102D59F233940EC
:101200005B1B89014E0AD8B2D6E76A1F96403100AF
:10121000024F39407207F4D0E9E7C046FFFFFFFBF9
:10122000F0B557464E464546DE46E0B598460C03B7
:101230004B000600924687B0240B5B0DCF0F002BAE
:1012400000D15CE1D94A934200D175E1420FE4003C
:101250001443802212041443D54AC50094466344C3
:101260000093002399469B46434642461E03D20FF5
:101270005B0050469046360B5B0D00D120E1CB4A17
:10128000934200D162E1CA49420F8C4600996344FF
:10129000F6008C46164380229C4412046346164393
:1012A000C200002000930099434601318C46494614
:1012B0007B4001930F2926D8BE4B890059588F4691
:1012C000434601933400150083465B46022B16D03B
:1012D000032B00D103E2012B00D0CDE0002200243B
:1012E0000025019B12052243DB071A432800110049
:1012F00007B0F0BCBB46B246A946A046F0BD0024EC
:101300000025AA4AEDE7280C2D042D0C2B00110C0A
:101310001204120C5343984613002F00434399467E
:101320004F434F44BB4647460B003F0CBA4643432E
:10133000DA440293D14504D980277F02B9464B4451
:10134000029353461B0C9B4653461F0443461B0403
:101350001B0C98463B0043440493330C3604360C74
:101360009846330043439946434643432F009A46E9
:10137000434677435D43380C4D444519A94503D98D
:1013800080235B029946CA443F04280C3F0C2D047D
:10139000ED19270C2404240C0300200050437A4349
:1013A00091463A0053440593030C9A464A436143DD
:1013B00049445144AB44894503D980235B02994693
:1013C0004A4400040B0C000C09040918200099463B
:1013D000434670435C437E435F43030C9846A41925
:1013E00044444A440397A64204D980235B029846AA
:1013F000474403972304029E9A46059B5E44984601
:10140000AE42AD4176188E4289410004000C504432
:1014100040446D424719B846934649428946C34401
:10142000D94498428041A845AD41934592418945B0
:1014300089416D4240422843240C524249420A43AA
:10144000039B00198018C7184B46DC0D049B7502DE
:101450001D436A1E95414B46F60D7F0235435A02E5
:101460003C431543FB0100D41CE101216A080D40F7
:101470001543E207154364084F496144002900DC25
:10148000B0E06B0709D00F222A40042A05D02A1D9C
:10149000AA42AD416D4264191500E30104D58021D3
:1014A000464AC90014406144454A914200DD26E79E
:1014B0006207ED08640249051543240B4A0D10E745
:1014C0005246324300D17FE0002E00D1DCE03000F4
:1014D00000F060FD02000B3A1D2301009B1A5246EA
:1014E0000839DA408E40164352468A40009B3549FF
:1014F000181A03008C46634400200093D3E62500AD
:1015000005434AD0002C00D1B0E0200000F042FD9D
:10151000010002000B391D2310005B1A3100350059
:1015200008388440D94085400C432648831A0093EC
:10153000002399469B4697E60500254326D10822BD
:1015400000930223002491469B468DE65246009B61
:10155000324310D1154900268C4663444946009316
:1015600002231943894602209DE65B460197022B20
:1015700000D0ADE6C3E60D4A0320944663444A46D4
:10158000009303231A43914652468CE60C220093A3
:101590000323050091469B4666E6042399460023F3
:1015A0000093013300249B465EE6C046FF0700001F
:1015B00001FCFFFFA4360008FF030000FFFFFFFE51
:1015C000FE0700000DFCFFFF494601231943894631
:1015D0000026012067E6002380240025434A01936A
:1015E00024037EE60120401A382800DD76E61F2815
:1015F0005BDD1F2223005242511ACB4019002028E4
:1016000003D03B4A6244944025436A1E95412A0018
:101610000A4307210D000024154011425BD00F2121
:1016200000241140042953D0111D9142924152428D
:10163000A4180A0023024BD501220024002550E6FD
:1016400080231B031C4209D01E4207D133431C03D5
:1016500043461500240B254A019342E680221203DB
:1016600014432403214A240B01973AE600F092FC2C
:1016700001000200153120321C2900DC4BE7340048
:1016800008380025844050E700F084FC03001A006D
:10169000153220301C2A00DC1EE75646083B00228B
:1016A0009E4023E7009B9C46E6E6124922006144E7
:1016B0002E008D408A40C640691E8D4132432A4328
:1016C000C4405307B6D00F2111400429ACD1B1E773
:1016D00065076402240BD2081543002201E680222C
:1016E000120314432403014A240BFAE5FF07000008
:1016F0003E0400001E040000F8B557464E4645461D
:10170000DE46E0B51E0017004A000B03520D5B0ACF
:101710009046420F1A43CD0FCD4C3103C30094467F
:1017200070007A0F490AFF009A46B946400DF60F3D
:101730001143A04200D1B1E001225640B346B54268
:1017400000D188E04246121A002A00DCAEE00028F0
:1017500000D1C1E0BE48804500D151E180200004A5
:101760000143382A00DD7BE11F2A00DDEEE1202065
:101770003E00801A0C00D640D1408740624684402B
:10178000521A781E8741944634432743DC1BA342F8
:101790009B4162465B42D31A99464B461B0200D4DA
:1017A00018E14B465802430A99464B46002B00D19C
:1017B00037E1484600F0EEFB010008392023220003
:1017C00048465B1ADA4088408C40434610438845BF
:1017D00000DD36E1C91A4B1C1F2B00DDEAE0202298
:1017E0002600D21A01009440DE40D84000239140E8
:1017F000621E94418146984631430C43630709D0E9
:101800000F232340042B05D0231DA342A44164428F
:10181000A1441C004B461B0200D4DEE041468C4B29
:101820000131994200D1E7E04B468A48E408034081
:10183000180049055B07400223434A0D040B1205BB
:10184000ED0722432A4318001100F0BCBB46B24604
:10185000A946A046F8BD4246121A002A52DD0028C9
:1018600000D19CE0A04500D1CAE0802000040143E3
:10187000382A00DD49E11F2A00DC97E110000E0044
:101880002038C640202A04D04020821A91400F43BD
:10189000B9464C46621E944134433AE10A003A4349
:1018A00028D0B346B5422BD06B4A4244002A5DD0C3
:1018B00042464446821A002C00D0F5E065461D439E
:1018C00000D19CE1551E012A00D1FBE1604CA242EF
:1018D00000D1BDE12A00F0E00800384300D1C3E0A8
:1018E000501E012A00D1A8E1594CA24200D187E044
:1018F000020036E701225640B346B54200D021E748
:10190000554A4244002A00D1B5E042464446821A74
:10191000002C00D138E14E4EB04200D1DEE18026ED
:10192000644636043443A446382A00DD96E11F2A73
:1019300000DD24E22026B41AA24664465646B4408E
:10194000A1461C004E46D440264334005646B340C0
:101950005E1EB3411C436346D340C918E419BC4220
:10196000BF417F42B94680468944D8E040463B4C5F
:101970000130204200D0B4E04046002800D044E1CD
:101980006046184300D190E10800384300D0AAE136
:101990006146DB0849070B436146CC0827E0080095
:1019A000384361D0501E012A00D139E1A24227D02C
:1019B00002005DE702001F39CA401100202B03D04E
:1019C0004022D31A98400443631E9C410023994649
:1019D00098460C43630700D012E74B464A46E4089A
:1019E0005B072343D408424619498A420ED0240398
:1019F0005205240B520D22E70A00002400231EE7A3
:101A0000DB086246520713436246D4081A00224399
:101A100000D1FCE180221203144324030C4A240B5E
:101A20000DE7200000F0B6FA010018311F2900DC94
:101A3000C4E608388440434620000024884500DC82
:101A4000C8E6044A5B1A104098468146D6E6C0466E
:101A5000FF070000FFFF7FFF01F8FFFFFE07000008
:101A60000F437A1E974191E66146DB0849070B4315
:101A70006146CC08B8E74046D34C0130204200D044
:101A8000A2E04046002800D001E16046184300D1A2
:101A90005EE10800384300D05FE16146DB0849079A
:101AA0000B436146CC08A2E7C84DA84200D1CFE065
:101AB000802564462D042C43A446382A56DC1F2A70
:101AC00000DDD1E020251E00AD1A6446AB40AC40DD
:101AD000D6405D1EAB41344323436446D440091BCA
:101AE00049E06046DC1B461AA342804140428146E1
:101AF00030004E46801B8146000276D44B4623437D
:101B000000D052E60024002571E739430C00621E24
:101B10009441E4189C429B415B42634499464B4686
:101B20001B0200D456E701239C46A84BE04498458D
:101B300038D04B46A64801220340180063081440E1
:101B40001C43C3071C434308994657E610000E0088
:101B50002038C640202A04D04020821A91400F43EA
:101B6000B9464F467A1E974137430FE662461A43FD
:101B700013005A1E9341FC1AA742BF417F42CB1B60
:101B800099465D46804608E666461E4300D1BEE0A3
:101B9000561E012A00D109E18C4CA24200D119E164
:101BA0003200C1E642460024002348E620200C0013
:101BB000801A3E0087408440D640781E8741D1403D
:101BC00034433C438C44A4E7804A904200D1E9E08E
:101BD000DF199F429B4161445B42C918CC077F08D3
:101BE0004B08994680463C43F4E6FC1AA742BF41A5
:101BF00063467F42C91ACB1B99465D46D5E5FF086F
:101C00004B075D463B43CC08EEE662461A4300D0E4
:101C100082E00B003B431BD1802400252403F9E61E
:101C2000DC199C429B41614489465B4299444B4686
:101C30001B0244D401239846CCE6DC1B6246A34237
:101C40009B41511A5B42CB1A994601239846A4E561
:101C5000FF084B075D463B43CC08D7E662461A4374
:101C60001400631E9C4179E615006446203DEC405B
:101C7000A046202A05D040256446AA1A9440234352
:101C80009A465446631E9C414346234373E762468B
:101C90001A4323D00A003A4300D0A0E06246DB0892
:101CA000520713436246D408B0E60B003B4300D111
:101CB00028E7FF084B075D463B43CC0897E6022325
:101CC000984636E7FC1AA742BF4163467F42C91ACD
:101CD000CB1B994601235D4698465EE54B07FF08FE
:101CE0003B43CC0892E6DC1B6046A342B641401A57
:101CF0007642801B8146000260D5FC1AA742BF4194
:101D000063467F42C91ACB1B99465D4676E5FF08BC
:101D10004B073B43CC0867E60A00DB083A4300D197
:101D20006FE66246520713436246D40880221203CC
:101D3000144207D0C808104204D15D460400FB08D5
:101D400049070B435A0FDB00DB08520713435DE6DC
:101D50004B07FF083B43CC0849E6DC199C429B41FA
:101D6000614489465B4299444B461B0200D431E6EC
:101D70004A46174B1A400123914698462AE6160018
:101D80006446203EF440A046202A05D04026644602
:101D9000B21A944023439A465446631E9C414346DC
:101DA0001C43DBE502000024002348E5DC19BC42AB
:101DB000BF41614489467F42B94438E74B462343DB
:101DC00000D19FE606E6C046FE070000FF070000C0
:101DD000FFFF7FFFFF084B073B43CC0816E6624638
:101DE000DB08520713436246D408802212031442D0
:101DF00007D0C808104204D15D460400FB0849071B
:101E00000B435A0FDB005207DB081343FEE50023A8
:101E1000014A1C0013E5C046FF0700000A0030B568
:101E2000134C530009030500090B00205B0DD20F72
:101E3000A34204DD0F48834202DD0F4BD01830BDB2
:101E40008020400301430D48C01A1F2808DD0C48BC
:101E5000C31AD9400B005842002AF0D11800EEE70F
:101E6000084CC540A446634499400B002B43F2E75D
:101E7000FE0300001D040000FFFFFF7F330400008D
:101E800013040000EDFBFFFF70B543004602C40FD2
:101E9000FE201B0E591C750A08420CD0E02292004D
:101EA00094466D07360B63441B053343E407234315
:101EB0002800190070BD002B14D1002D1BD0280064
:101EC00000F068F80A281CDC0B232E001B1ADE40E9
:101ED000030015339D400E4A3603121A5205360B85
:101EE000530DE1E7002D09D08022360B1203094B78
:101EF0006D071643D8E700230026D5E70026054BDB
:101F0000D2E703000B3B9D402E000025E3E7C046CF
:101F100089030000FF0700008446100062468C46DB
:101F20001900634600E0C0461FB500F0F9F800282C
:101F300001D40021C8421FBD10B500F049F840424D
:101F4000013010BD10B500F0EBF8002801DB0020D7
:101F500010BD012010BDC04610B500F0E1F800280A
:101F600001DD002010BD012010BDC04610B500F0FD
:101F700071F8002801DC002010BD012010BDC04612
:101F800010B500F067F8002801DA002010BD01202C
:101F900010BDC0461C2101231B04984201D3000C34
:101FA00010391B0A984201D3000A08391B099842CC
:101FB00001D30009043902A2105C40187047C046E2
:101FC0000403020201010101000000000000000002
:101FD000F0B54E464546DE4657469046E0B51700FA
:101FE0001A03120B0500844619480E034C00914653
:101FF0005A00DB0F9B46360B640DC90F520D84420D
:1020000019D0824210D0012094420ED14E450CD1FD
:102010000120C44509D1594517D0002C05D1300005
:102020002843431E984100E00120F0BCBB46B24665
:10203000A946A046F0BD330001202B43F5D1A242B2
:10204000F3D14B463B43F0D1E2E70020EDE7C04639
:10205000FF070000F0B54746CE4604001800160002
:102060001B031B0B2D4D4A00994680B543000F03FF
:10207000A446B0463F0B520DC90F5B0DC00FAA42DC
:1020800021D0AB4213D0002A22D13C43002B02D1F5
:102090004D462E4322D0002C10D0814222D0022067
:1020A000013908400138C0BCB946B046F0BD4D46C4
:1020B0002E4329D1002AF0D13C43EED10028F2D1A1
:1020C00001204042EFE73D0025431DD19342EED071
:1020D000002BE2D14C462643DFD1E0E70020002C64
:1020E000E1D0DCE79A420ADCE8DB4F45D7D80ED0D6
:1020F00000204F45D7D20029E2D00800D3E7434261
:10210000584140000138CEE702204042CBE7C445A9
:10211000C5D80020C445C6D2EDE7C046FF07000081
:10212000F0B54746CE460400180016001B031B0BF3
:102130002C4D4A00994680B543000F03A446B04693
:102140003F0B520DC90F5B0DC00FAA420DD0AB4221
:1021500010D0002A27D13C43002B11D14D462E43ED
:102160000ED10020002C15D00EE03D00254310D1EB
:10217000934218D14D462E430BD1002A02D13C4345
:10218000002C0BD0814214D00220013908400138C4
:1021900000E00220C0BCB946B046F0BD0028F9D12D
:1021A00001204042F6E7002BECD14C462643E9D112
:1021B000EAE79A4204DD4342584140000138E9E72A
:1021C0009A42EBDB4F45DFD806D000204F45E1D2E5
:1021D0000029E5D00800DDE7C445D5D80020C44576
:1021E000D8D2F5E7FF07000080230C200D4ADB0260
:1021F00051690B4353610C4B1A6882431A600422E5
:1022000019680A431A600222596891435960996813
:1022100081439960D9688143D96099690A439A6179
:102220007047C0460010024000040048F7B5002582
:1022300006000C1CAA4210D0081CFFF725FE6B4BB1
:102240000022FEF7EDFFFFF7E9FD030427D52D235C
:10225000337080231B06E4180125201CFFF714FEB1
:10226000634B0022FEF7DCFFFEF7FEF8EBB25F1CCB
:10227000019373190400FFB20093092812D8302388
:10228000009A7DB213702E22EBB272555A1CD2B254
:102290003034B45400220233DBB2F254F7BD2B23A6
:1022A0003370D9E7534B98422CD95349FDF72CFF93
:1022B000009B3030187050492000FDF7ABFF4F4BAA
:1022C0000C00994277D83023019DF35502356DB249
:1022D0004B4B9C422ED8FA239B009C4240D2632C4D
:1022E00054D8092CCFD90A212000FDF70DFF30303A
:1022F00070550A212000FDF78DFF6F1C7FB20C0086
:102300003D00C0E73D4B9842E2D9EFB27B1CDBB207
:1023100020003C490093FDF7F7FE303070553949F5
:102320002000FDF777FF364B0C00994245D96B46EC
:1023300000255D57EFB27B1CDBB2200032490093D1
:10234000FDF7E2FE303070552F492000FDF762FFA7
:10235000FA230C009B00994235D36B4600255D574C
:10236000FA21EFB27B1CDBB2200089000093FDF75D
:10237000CBFEFA213030705589002000FDF74AFF6E
:102380000C00632925D96B4600255D57EFB27B1CF5
:10239000DBB2642120000093FDF7B6FE30307055AB
:1023A00064212000FDF736FF0C00092917D96B4680
:1023B00000255D5797E77DB2A7E73023009A0237E3
:1023C0007DB2B35487E73023009A02377DB2B3540D
:1023D00085E73023009A02377DB2B35481E730237A
:1023E000009A02377DB2B3544DE7C046000060400A
:1023F000000024403F420F0040420F009F86010032
:102400000F270000A086010010270000F0B595B04E
:1024100000F06CFC00F014FAFFF7E6FE8022802149
:1024200090208027D2008900C00500F0D1FA022652
:10243000BF0200F0DDFC654C051E00D1BDE0A369C4
:10244000634A3B43A36100231900180000F096FD86
:10245000FA20400000F020FA002DEAD00225A369FE
:1024600000202B43A36100F0A5FC142000F014FA17
:102470000023584A1900180000F080FDFA20802738
:10248000800000F009FABF0209A800F0B5F8061EA6
:1024900000D196E0A36929003B43A36100234E4A83
:1024A000180000F06BFDFA2000F0F6F9002EEBD0DA
:1024B000FA20800000F0F0F9FA27002000F07AFC02
:1024C000FF0009A800F0C6F80028C8D06B464C26CB
:1024D0009B19188800F0D6F909A800F0CBF800285D
:1024E000BDD00122109901A8FFF7A0FE00233B4AAE
:1024F0001900180000F042FD002301AA190000F0A5
:102500003DFD0023364A190000F038FD032109A8DB
:1025100000F0DCF80028A2D06B469B19188800F068
:10252000B1F909A800F0FEF8002898D0119901A887
:102530000022FFF77BFE00232A4E01213200180003
:1025400000F01CFD01AA0023012100F017FD00236B
:102550000121254A00F012FD119800F069F90022CE
:10256000011C01A8FFF762FE0023320029001800B9
:1025700000F004FD290001AA002300F0FFFC002365
:1025800029001A4A00F0FAFC129901A80022FFF76C
:102590004DFE002303211800154A00F0EFFC01AAAC
:1025A0000023032100F0EAFC00230321114A00F07C
:1025B000E5FC380000F070F983E7636973406361FC
:1025C00046E763696B4063616DE7C04600040048FD
:1025D000E4360008FA360008143700082C370008E3
:1025E0003B3700083F3700084B3700084F370008DB
:1025F000553700086137000870B5040088B0EE2038
:1026000000F026FA002823D06B46DD1D2A000123A6
:10261000D021EE2000F05EFA002819D02B7800209F
:10262000552B15D11623AA21EE2002AA00F052FA4A
:1026300000280DD0002202AB1E785D7851083602CA
:10264000023249003543D2B20D530233162AF3D178
:1026500008B070BD13B56B46DA1D2E23040013704D
:10266000F4212D3BEE2000F0D7FA014B238516BD57
:102670009411000073B501AE040002233200F6216C
:10268000EE2000F027FA051E1BD0338860895BBA64
:1026900026899BB21B1A5E431223E05E1423E15E7F
:1026A000F6138919C002FDF7B9FD8019A061FEF784
:1026B00069FD8221C905FDF7F5FE0349FEF790F893
:1026C000E061280076BDC0460000204337B56B4668
:1026D00004000D00DA1D022913D0032915D00129A9
:1026E0000BD0342313700B4B2385F42101232A34A0
:1026F000EE2000F091FA25703EBD74231370064B56
:10270000F2E7B4231370054BEEE7F4231370044B88
:10271000EAE7C046941100004C1D0000C8320000DA
:10272000A8610000F0B585B003AE040003233200B9
:10273000F621EE2000F0CEF90190002860D02300B1
:102740002A331A783249A3695F183B007B4304207F
:10275000215E0C25605F1B13794358434913001415
:10276000091880200231000289100918E088757864
:10277000414330782D02B6780004284306430820F0
:10278000801A06410E25605FC90B58430225635F1E
:10279000C0125F430025635FFF12C0199B00C01881
:1027A000904002308010361A1A48104170430028B9
:1027B00029DB4000FDF7A8FC020013125B4316481A
:1027C0005843164B001453431B141818144BC018CD
:1027D00000118018FEF7D6FC12492062FEF7C8F9F6
:1027E00000F06CFC1049FEF7C3F900F03FFC011C3F
:1027F000FE208005FEF7E2FA0C49FEF7B9F96062A7
:10280000019805B0F0BDFDF77FFC4200D5E7C0465A
:1028100060F0FFFF50C30000DE0B000043E3FFFF4A
:10282000CF0E000008942537AEDC423E002A2D472B
:1028300010B50249FEF79CF910BDC046BCC7F53B78
:1028400080230C4A1B0191690B4393612F220A4B91
:102850000A499A620A4ADA6200225A629A680A406F
:1028600001219A601A680A431A601A690A42FCD068
:102870007047C04600100240002C0140FFBFFFFF20
:10288000FFFF00000022034B5A625A6A8242FCD9C1
:102890007047C046002C014070B5FA250400AD0019
:1028A000002C00D170BD2800013CFFF7EBFFF7E7DB
:1028B000B8231B06C0180123800A113080B2834060
:1028C000024A51690B4353617047C04600100240F1
:1028D000F0B587B002930CAB1B78944603930DAB15
:1028E0001B78013A0493B8231B06C3189B0A1133C3
:1028F000DBB200930023D2B201910592019A01212B
:102900001A410A4228D00E009E40009A15495400F0
:10291000625A32436252032459008C40C268E74332
:10292000A2431500039A8A401543C5600268A2437A
:1029300064468C4022430260059A012A0CD8029C0E
:1029400042689C40B243A4B22243426082683A404B
:10295000049F8F403A4382600133102BCED107B0E1
:10296000F0BDC04680000020F0B587B003930CABEB
:102970001B78050004930DAB1B780E1E0292059385
:1029800023D0FFF795FF00240F20330001222341BD
:1029900013420DD007210700214089008F40E30832
:1029A0009B00EB181A6ABA43059F8F403A431A629C
:1029B0000134102CE9D1049B02220193039B3100C6
:1029C00000932800029BFFF783FF07B0F0BD0000D3
:1029D000F7B5012404270500160000232200019703
:1029E0000094FFF7C1FF0023220031002800019767
:1029F0000094FFF7B9FF8023124A9B03D1690B4370
:102A0000D361114B11495A680A405A601A691A6118
:102A1000092219690A431A61C022196992000A43FE
:102A20001A618022196952020A431A61C022196987
:102A300092030A431A611A6822431A601A682242F2
:102A4000FCD0F7BD0010024000540040FFE7FFFF3C
:102A50001D4B1E495A680A405A605A681C490A4070
:102A60005A605A68920A92025A6080225968120487
:102A70000A435A605A68104380225860596892018C
:102A80000A435A60802212029969080010401142DC
:102A9000FAD19A69D20603D401209A695208904368
:102AA00080225968D2010A435A6080221202996931
:102AB0001142FCD12022D9690A43DA611022D96976
:102AC0000A43DA617047C04600540040FFFBFFFF35
:102AD000FFFF00FFF7B501924B4A4C4D54682C4064
:102AE000546055684A4C254055605568AD0AAD02A2
:102AF0005560802556686D0235435560556805431D
:102B0000556080255668AD013543556080252D02FE
:102B100096692E42FCD10226B446402796693E4271
:102B200003D1102596692E425CD080215568C901D9
:102B3000294351608021090295690D42FCD1202171
:102B4000D5692943D16151680C4054605168890AA4
:102B50008902516080215468C90021435160546842
:102B60001904214351605168084380215060506826
:102B700089010143516080210902946920000840C5
:102B80000C42FAD110210426402594692C422FD002
:102B900080215468C9012143516080210902946950
:102BA0000C42FCD12021D4692143D1611021D46988
:102BB0002143D161C021946989000C4209D0D469B4
:102BC0000139FF392143D1618021D4694900214372
:102BD000D161C01A4342584151680E4CC0B22140E5
:102BE0005160FEBD654696692E4297D0916294E78A
:102BF00094690C42CCD194693442C6D0556A019F85
:102C0000441C3D54E0B2BFE700540040FFFBFFFF0F
:102C1000FFFF00FFFF7BFFFFF0B5314C314E6568D1
:102C2000354065606568304E354065606568AD0A61
:102C3000AD02656066685D1C2D043543656065689E
:102C400028436060802065688001284360608020A0
:102C50000002A5690542FCD102261020A569354273
:102C600002D1A5690542F9D0A069800700D5A1620B
:102C700000201021022709E0A5690D420AD1A569AB
:102C80003D4204D0451C105CA062E8B24026A56914
:102C90003542F1D080226168D2010A43626080220D
:102CA0001202A1691142FCD12022E1690A43E261CA
:102CB0001022E1690A43E261C022A1699200114237
:102CC00009D0E169013AFF3A0A43E2618022E169F1
:102CD00052000A43E261181A42425041C0B2F0BDAC
:102CE00000540040FFFBFFFFFFFF00FF10221D4BC1
:102CF00019680A431A60012219680A431A6080227F
:102D0000194B520219680A431A608022920219680C
:102D10001142FCD0DA6A1549DA625A680A40F02199
:102D20005A605A6889030A405A60882259685203D7
:102D30000A435A608022196852040A431A608022AA
:102D4000920419681142FCD003215A688A435A60E0
:102D5000022259680A430C215A605A680A40082A1C
:102D6000FBD170470020024000100240FFFFFEFF31
:102D700010B502000B0078200021FFF74DFF10BDB9
:102D800010B502000B0078204021FFF745FF10BD71
:102D900007B55022524203000A4301A802700F22D5
:102DA0001A40427010221B09134303218370FFF75E
:102DB000DFFF07BD73B5002816D16B46D87100241C
:102DC000802621000020FFF7E3FF35006B46013D20
:102DD0000121D81DEDB2FFF7D3FF002DF6D101344C
:102DE000E4B2042CEDD173BDFF236A46D371E6E74C
:102DF000F7B57820FFF72CFE002878D06420FFF785
:102E00004BFDAE2301AC012120002370FFF7B0FF82
:102E1000D523022120002370553B6370FFF7A8FFE4
:102E20008D23022120002370793B6370FFF7A0FF00
:102E30004023012120002370FFF79AFFA1230121E5
:102E400020002370FFF794FFC823022501212000F2
:102E50002370FFF78DFFDA232900200023706570AF
:102E6000FFF786FFA823290020002370893B002656
:102E70006370FFF77DFFD323290020002370667065
:102E8000FFF776FF2023290020007F27237066703C
:102E9000FFF76EFF21230321200023706670A770C7
:102EA000FFF766FF2223032120002370A1706670C4
:102EB000FFF75EFF81232900200023706770FFF772
:102EC00057FFA423012120002370FFF751FFA62301
:102ED000012120002370FFF74BFFAF2301212000C9
:102EE0002370FFF745FF3000FFF764FF0120FEBDB0
:102EF0007FB515006A46D37143B20400002B27DB6F
:102F0000032925D8FFF744FF2B00203BDBB2A12B80
:102F10001ED8174BED18174B6D005D5B2E05360D57
:102F2000F61880232D0B1B1B9D4200DD9DB26419FA
:102F3000E4B2013D104BADB29D420CD163B2002B07
:102F400006DB6B460121D81DFFF71AFF0134E4B2FE
:102F5000200004B070BD6A460F203378D2796844EF
:102F60005340012103700136FFF70AFFE1E7C04635
:102F7000E0FFFF7F64370008FFFF0000F8B51E0088
:102F800043B20D001400002B1ADB032918D8C02708
:102F90002278002A14D01F2A0FD97E2A09D9B02AF4
:102FA0000FD0A82A0FD0B82A0FD0BF2A05D9403A8F
:102FB000D2B233002900FFF79BFF01340306E7D5A7
:102FC000F8BD7F22F5E73A00F3E7C122F1E7000000
:102FD0000D48854600E000BF0C480D490D4A00230E
:102FE00002E0D458C4500433C4188C42F9D30A4ABE
:102FF0000A4C002301E013600432A242FBD300F02C
:1030000011F8FFF703FAFEE700100020000000208F
:1030100064000020343B0008640000209800002079
:10302000FEE7000070B500260C4D0D4C641BA4108B
:10303000A64209D1002600F0C9FA0A4D0A4C641BC9
:10304000A410A64205D170BDB300EB5898470136D5
:10305000EEE7B300EB5898470136F2E72C3B000847
:103060002C3B00082C3B0008303B000870B5041CCA
:1030700000F050F8051C201C00F094FA00280BD03A
:103080000C49201CFDF7DCF9002807D000F098FA65
:10309000FF252223ED050360281C70BD0649201C76
:1030A000FDF7BAF90028F7D000F08AFA22230025AC
:1030B0000360F1E78071B142B5F1CFC270B5051C74
:1030C00000F018F9291C041C281CFEF725F800281C
:1030D00010D10021281CFDF7B3F900280AD10021E6
:1030E000281CFDF793F9002806D000F069FA222386
:1030F000064C0360201C70BD00F062FA21230360BF
:10310000034800F059FA041CF4E7C046000080FFB1
:1031100060370008F7B5FF214300041C5B08C905B0
:103120008B4204D9011C201CFDF7BCF90DE0C60F31
:103130008B4204D1002E00D00024201CFEBD5D492E
:10314000884204DD002000F027FA041CF5E700287F
:1031500006DA594A934203D9002000F017FAF4E73F
:10316000564A93426ED9564AB50093424ED8554BB3
:10317000201C5959FDF722FE534B071C5B590125B2
:10318000AD1B0093AD1B0099381CFDF717FE041C06
:10319000211C201CFDF7ECFC4C49061CFDF7E8FC4B
:1031A0004B49FDF70BFE311CFDF7E2FC4949FDF7E9
:1031B00079F9311CFDF7DCFC4749FDF7FFFD311CB7
:1031C000FDF7D6FC4549FDF76DF9311CFDF7D0FC44
:1031D000011C201CFDF7F2FD011C061C201CFDF744
:1031E000C7FC0190002D40D18021301CC905FDF79E
:1031F000E5FD011C0198FDF7F3FA211CFDF7DEFD4A
:10320000011CFE208005FDF7D9FD9EE73449201CF6
:10321000FDF7AEFC334B5959FDF744F9FDF792FF2A
:103220000500FDF7AFFF3049061CFDF7A1FC011CAE
:10323000201CFDF7C3FD2D49071C301CFDF798FC31
:103240000090A0E7D022920593420CD22849201C7E
:10325000FDF728F9FE218905FDF7F2F8051E97D044
:10326000FE2189055FE7002592E78020311CC0051B
:10327000FDF7A4FD011C0198FDF7B2FA011C0098AE
:10328000FDF79CFD391CFDF799FD011CFE20800512
:10329000FDF794FD2B00041C7D3302DBED052C189B
:1032A0004BE7D8216435E80500190905FDF760FCF6
:1032B0004BE7C0461772B142B5F1CF421872B13E2A
:1032C0009115853F1C3B0008243B00084CBB313363
:1032D0000EEADD3555B38A38610B363BABAA2A3E80
:1032E0003BAAB83F143B00088071313FD1F7173734
:1032F000CAF24971F0B5030085B0420006D1CC2076
:1033000000210006FDF76CFA05B0F0BD002804DAD4
:10331000011CFDF753FD0021F4E7FF22011CD2053B
:1033200090423DDA802100220904884206DA982181
:10333000C905FDF71DFC192203005242DD157F3D32
:10334000AD185B02784A5B0A9818009380231B042F
:103350000340FE20FE218005DA155840009B8905B8
:1033600018435519FDF72AFD009A704B0F32041CC3
:103370001A4247D10021FDF749F8002813D0002058
:10338000002DC1D02800FDF7FDFE6949041CFDF7A2
:10339000EFFB6849051C201CFDF7EAFB011C281CFB
:1033A000FDF780F8B0E76449201CFDF7E1FB011C44
:1033B000FC208005FDF702FD211C061C201CFDF7EA
:1033C000D7FB011C301CFDF7D3FB061C002D01D1DF
:1033D000311C7CE02800FDF7D5FE5549051CFDF7A2
:1033E000C7FB5449071C281CFDF7C2FB011C301CFD
:1033F000FDF7E4FC211CFDF7E1FC011C381CFDF786
:10340000DDFC81E78021C905FDF74CF8011C201C7B
:10341000FDF7E6F901902800FDF7B4FE019902904E
:10342000081CFDF7A5FB454A009B9446011C63441C
:103430000393071CFDF79CFB4149061CFDF798FB15
:103440004049FDF72FF8311CFDF792FB3E49FDF78F
:1034500029F8311CFDF78CFB3C49FDF723F8391C9A
:10346000FDF786FB3A49071C301CFDF781FB394903
:10347000FDF718F8311CFDF77BFB3749FDF712F813
:10348000311CFDF775FB011C381CFDF70BF8009B88
:10349000071C3248C01A039B184300282FDDFC216B
:1034A000201C8905FDF764FB211CFDF761FB011C55
:1034B000061C381CFCF7F6FF0199FDF759FB071CA9
:1034C000002D06D1011C301CFDF778FC011C201CCE
:1034D00095E717490298FDF74BFB1649051C029822
:1034E000FDF746FB391CFCF7DDFF011C301CFDF726
:1034F00065FC211CFDF762FC011C281C7FE7391CC0
:10350000201CFDF75BFC0199FDF732FB061C002D2A
:1035100000D15DE706490298FDF72AFB0549051C25
:103520000298FDF725FBE0E720FB4A00F0FF7F0053
:103530008071313FD1F71737ABAAAA3E305CCFFF7D
:103540009788173E25333A3E2549923EABAA2A3F3B
:103550004FD01C3E298E633ECDCCCC3E88C2350078
:1035600070B50D00041C00F02BF80560201C70BD28
:1035700010B50B1C002802D080231B06CB18181C8A
:10358000FDF7F6FA2221FFF7EBFF10BD802110B501
:103590004905FFF7EDFF10BDE02110B5C905FFF7A4
:1035A000E7FF10BDFF2243005B080120D2059342D4
:1035B00000DB002070470000004870470000C07F1B
:1035C000014B18687047C04600000020F8B5C0469F
:1035D000F8BC08BC9E467047F8B5C046F8BC08BCAD
:0435E0009E4670474C
:1035E400B4090008400900089C08000854080008B1
:1035F4009C0800087C0900089C080008540800087E
:1036040040090008400900087C0900085408000823
:103614005A0800085A0800085A0800088A090008CD
:1036240040090008400900089C08000850080008E8
:103634009C0800087C0900089C0800085008000841
:1036440040090008400900087C09000850080008E7
:103654005A0800085A0800085A0800088609000891
:10366400140C0008E40B0008E40B0008E20B00084B
:10367400E80B0008E80B0008300D0008E20B000816
:10368400E80B0008300D0008E80B0008E20B000806
:10369400DC0C0008DC0C0008DC0C00086C0D0008D5
:1036A40006130008C4120008C4120008C01200085F
:1036B400CA120008CA120008D6150008C012000871
:1036C400CA120008D6150008CA120008C012000861
:1036D4006A1500086A1500086A15000840160008F3
:1036E40053534431333036204C43442069732066AD
:1036F4006F756E6421005365616368696E6720426B
:103704004D503138302073656E736F722E2E2E003B
:10371400424D503138302073656E736F7220697377
:1037240020666F756E64210054656D7065726174F6
:10373400757265203D2000B043200050726573739C
:10374400757265203D2000506120006D6D48672032
:1037540000416C746974756465203D20006D20001F
:1037640044114511463149514E5153715A51461134
:103774005F216021625167516C216E516C1173316C
:1037840076517B317E51835188518D51925197519D
:103794009C51A1514911A621A831AB51B031B3516B
:1037A400B861BE51C351C851CD51D251D751DC512A
:1037B400E151E631E941ED51F251F771FD51765194
:1037C400015206520B52105215521A521F522472B1
:1037D4002B5230523552CD313A323D32405245525D
:1037E4004A224C62525256525B52605265426952AE
:1037F4006E527332753278427C327F5284528952CF
:103804008E52926298529D52A242A652AB52B0522C
:10381400B552BA52BF52C432C712C832CA52CF428A
:10382400BE51D352C351D852DD62D251E372EA522F
:10383400EF52F452ED51F952F771E1517651FD52C4
:103844000152C8511552025307732B520E6314537D
:103854001873188320632173215328532D63335322
:103864004C6238533D534253476360524D73545333
:1038740059535D53615366536A536E53895272535D
:103884008E5256527453BA527973B552805385533B
:10389400895389638F539063904396539B63A153D9
:1038A400A653AB53005F030003247E247E242649E1
:1038B4007F493202453208265120304E4936503E67
:1038C400413E14083E081408083E08084020080831
:1038D4000808086018063E4141413E427F4042616B
:1038E4005149462141494D331814127F102745454B
:1038F40045393E494949300101710D033649494969
:1039040036064949493E4024081422141414141458
:1039140022140802015109061C224955555E7E11E4
:1039240011117E7F494949363E414141227F41413F
:10393400221C7F494949417F090909013E414151FE
:10394400327F0808087F417F412041413F7F080CB6
:1039540012617F404040607F02041804027F020C21
:10396400107F090909063E4141215E7F0919294654
:10397400264949493201017F01013F4040403F0748
:10398400186018073F40201820403F631408146350
:103994000708700807615149454306186041417F93
:1039A40004020102044040404040010220545454A7
:1039B40038407F2444443844444428384444447FB1
:1039C4003854545418087E090118A4A4A87C7F0410
:1039D400040478447D40443D7F101864417F407C5A
:1039E400047804787C080404783844444438FC247B
:1039F400242418242424FC407C0804040848545437
:103A04005424043F44403C4040403C0C3040300C83
:103A14001C6010601C44281028440C9060300C4436
:103A240064544C440836417F4136080408100806A3
:103A34000909067F494949307F01010103C07E41DC
:103A4400417FC06314087F08146322414949367FCB
:103A54002010087F7F2011087F403E01017F010173
:103A6400017F034C300C030E11117F11110E7F40A6
:103A740040407FC0070808087F40407E40407FC028
:103A8400017F48484830007F224149493E7F083E33
:103A940041413E462919097F3C4A4A4A317C5454E3
:103AA40054287C0404040CC07844447CC06418107A
:103AB4007C10186428445454287C2010087C20125C
:103AC400087C10181460403C04047C0810087C1026
:103AD40010107C0404047C0404182424FC242418FA
:103AE4007C40407CC00C1010107C4078407CC004AA
:103AF4007C484830007C28445454387C1038444472
:103B040038582424247C7E4B4A4B4238555455184B
:103B14000000003F000000BF8071313F807131BF61
:083B2400D1F71737D1F717B7ED
:043B2C00E9000008A4
:043B3000C1000008C8
:103B3400040000200000000000000000000000005D
:103B44000000000000000000000000000000000071
:103B54000000000000000000000000000000000061
:103B64000000000000000000000000000000000051
:103B74000000000000000000000000000000000041
:103B84000000000000000000000000000000000031
:043B9400000000002D
:0400000508002FD1EF
:00000001FF
