:020000040800F2
:100000000010002081040008D1040008D104000879
:1000100000000000000000000000000000000000E0
:10002000000000000000000000000000D1040008F3
:100030000000000000000000D1040008D104000806
:10004000D1040008D1040008D1040008D10400083C
:10005000D1040008D1040008D1040008D10400082C
:1000600000000000D1040008D1040008D1040008F9
:10007000D1040008D1040008D104000800000000E9
:10008000D1040008D104000800000000D1040008D9
:10009000D1040008D1040008D1040008D1040008EC
:1000A000D1040008D1040008D1040008410400086C
:1000B000D1040008D104000800000000D1040008A9
:1000C00010B5064C2378002B07D1054B002B02D02E
:1000D000044800E000BF0123237010BD1000002081
:1000E000000000001C050008044B10B5002B03D0D5
:1000F0000349044800E000BF10BDC04600000000F6
:10010000140000201C050008002243088B4274D311
:1001100003098B425FD3030A8B4244D3030B8B4208
:1001200028D3030C8B420DD3FF22090212BA030C11
:100130008B4202D31212090265D0030B8B4219D3F2
:1001400000E0090AC30B8B4201D3CB03C01A524112
:10015000830B8B4201D38B03C01A5241430B8B425A
:1001600001D34B03C01A5241030B8B4201D30B0343
:10017000C01A5241C30A8B4201D3CB02C01A52416A
:10018000830A8B4201D38B02C01A5241430A8B422D
:1001900001D34B02C01A5241030A8B4201D30B0216
:1001A000C01A5241CDD2C3098B4201D3CB01C01A30
:1001B000524183098B4201D38B01C01A524143093A
:1001C0008B4201D34B01C01A524103098B4201D328
:1001D0000B01C01A5241C3088B4201D3CB00C01A95
:1001E000524183088B4201D38B00C01A524143080D
:1001F0008B4201D34B00C01A5241411A00D2014632
:10020000524110467047FFE701B5002000F006F8A4
:1002100002BDC0460029F7D076E770477047C04658
:1002200000B591B000F00EF89620800100F04CF877
:100230004021684600F0CAF80028F9D0684600F06E
:10024000E9F8F5E710221D4B19680A431A600122EC
:1002500019680A431A608022194B520219680A432E
:100260001A608022920219681142FCD0DA6A15499C
:10027000DA625A680A40F0215A605A6889030A40D3
:100280005A608822596852030A435A6080221968CA
:1002900052040A431A608022920419681142FCD069
:1002A00003215A688A435A60022259680A430C2182
:1002B0005A605A680A40082AFBD170470020024061
:1002C00000100240FFFFFEFF80221F4B0100586913
:1002D0009202024310B55A6180229869D20102430A
:1002E0009A619023A022DB051868920302431A60EA
:1002F0008822586A520002435A62144B4808C018B8
:10030000FFF702FF124B1349D8601A68C6240A404F
:100310001A600C22196880200A431A60202219688A
:10032000A4000A430C491A600A5900061202120A74
:1003300002430A51802212050A60012207490A730A
:1003400019680A431A6010BD00100240006CDC02FC
:1003500000380140FFCFFFFF00E100E00000002077
:1003600010B50C4B1A889988002A03D15C881000BC
:100370008C420DD0D888884201D10021998099887B
:100380009868405601319980002A01D0013A1A80BC
:10039000C0B210BD0000002030B50B4A01009388A8
:1003A0001088D4889268002800D130BD9C4200D1CA
:1003B0000023D55C8D4204D0013301389BB280B25A
:1003C000F1E70120F1E7C04600000020F8B5104F2A
:1003D00005003C880E00002C15D00A20FFF7DCFF3A
:1003E000002802D1FB88A3420FD10024731E2F19CD
:1003F0009C4206DAFFF7B4FF0134A4B238700A2831
:10040000F4D100232B552000F8BD0400FBE7C046C3
:100410000000002010B5084B1B7B002B04D04021AE
:10042000064A0378002B00D110BDD4690C42FCD0E1
:100430009BB201301385F4E7000000200038014032
:100440000C4AD3699B0613D50B4BD9881888884270
:100450000ED25888884201D100215980918C986829
:100460005A8881545A8801325A801A8801321A8077
:100470007047C0460038014000000020704700006F
:100480000D488546FFF7FAFF0C480D490D4A002339
:1004900002E0D458C4500433C4188C42F9D30A4A39
:1004A0000A4C002301E013600432A242FBD300F0A7
:1004B00011F8FFF7B5FEFEE7001000200000002055
:1004C000100000203C050008100000206C000020F7
:1004D000FEE7000070B500260C4D0D4C641BA41007
:1004E000A64209D1002600F019F80A4D0A4C641BF7
:1004F000A410A64205D170BDB300EB589847013651
:10050000EEE7B300EB5898470136F2E734050008F0
:10051000340500083405000838050008F8B5C04661
:10052000F8BC08BC9E467047F8B5C046F8BC08BC8D
:040530009E4670472C
:04053400E9000008D2
:04053800C1000008F6
:10053C0000000000000040002C0000200000000023
:04000005080004816A
:00000001FF
