:020000040800F2
:1000000000100020FD1B00084D1C00084D1C0008BE
:1000100000000000000000000000000000000000E0
:100020000000000000000000000000004D1C00085F
:1000300000000000000000004D1C00084D1C0008DE
:100040004D1C00084D1C00084D1C00084D1C0008EC
:100050004D1C00084D1C00084D1C00084D1C0008DC
:10006000000000004D1C00084D1C00084D1C00083D
:100070004D1C00084D1C00084D1C0008000000002D
:100080004D1C00084D1C0008000000004D1C00081D
:100090004D1C00084D1C00084D1C00084D1C00089C
:1000A0004D1C00084D1C00084D1C0008C51B000815
:1000B0004D1C00084D1C0008000000004D1C0008ED
:1000C00010B5064C2378002B07D1054B002B02D02E
:1000D000044800E000BF0123237010BD1000002081
:1000E00000000000981C0008044B10B5002B03D042
:1000F0000349044800E000BF10BDC04600000000F6
:1001000014000020981C0008002243088B4274D37E
:1001100003098B425FD3030A8B4244D3030B8B4208
:1001200028D3030C8B420DD3FF22090212BA030C11
:100130008B4202D31212090265D0030B8B4219D3F2
:1001400000E0090AC30B8B4201D3CB03C01A524112
:10015000830B8B4201D38B03C01A5241430B8B425A
:1001600001D34B03C01A5241030B8B4201D30B0343
:10017000C01A5241C30A8B4201D3CB02C01A52416A
:10018000830A8B4201D38B02C01A5241430A8B422D
:1001900001D34B02C01A5241030A8B4201D30B0216
:1001A000C01A5241CDD2C3098B4201D3CB01C01A30
:1001B000524183098B4201D38B01C01A524143093A
:1001C0008B4201D34B01C01A524103098B4201D328
:1001D0000B01C01A5241C3088B4201D3CB00C01A95
:1001E000524183088B4201D38B00C01A524143080D
:1001F0008B4201D34B00C01A5241411A00D2014632
:10020000524110467047FFE701B5002000F006F8A4
:1002100002BDC0460029F7D076E770477047C04658
:1002200070B500220C4B04000D0000F0AFFE00285A
:1002300004D12000290000F00FFE70BD064B002203
:100240002000290000F076FA00F006FE80231B064D
:100250009C466044F1E7C0460000E041F0B55746D7
:100260004E464546DE46E0B598460C034B00060078
:10027000924687B0240B5B0DCF0F002B00D15CE1C1
:10028000D94A934200D175E1420FE4001443802221
:1002900012041443D54AC5009446634400930023D6
:1002A00099469B46434642461E03D20F5B0050468A
:1002B0009046360B5B0D00D120E1CB4A934200D132
:1002C00062E1CA49420F8C4600996344F6008C46AD
:1002D000164380229C44120463461643C200002049
:1002E00000930099434601318C4649467B40019377
:1002F0000F2926D8BE4B890059588F464346019393
:100300003400150083465B46022B16D0032B00D128
:1003100003E2012B00D0CDE0002200240025019B48
:1003200012052243DB071A432800110007B0F0BC76
:10033000BB46B246A946A046F0BD00240025AA4A05
:10034000EDE7280C2D042D0C2B00110C1204120CBF
:100350005343984613002F00434399464F434F445D
:10036000BB4647460B003F0CBA464343DA44029370
:10037000D14504D980277F02B9464B4402935346A6
:100380001B0C9B4653461F0443461B041B0C9846FC
:100390003B0043440493330C3604360C9846330038
:1003A00043439946434643432F009A464346774387
:1003B0005D43380C4D444519A94503D980235B02A0
:1003C0009946CA443F04280C3F0C2D04ED19270C14
:1003D0002404240C0300200050437A4391463A0041
:1003E00053440593030C9A464A436143494451449C
:1003F000AB44894503D980235B0299464A440004F3
:100400000B0C000C09040918200099464346704360
:100410005C437E435F43030C9846A41944444A441A
:100420000397A64204D980235B029846474403976A
:100430002304029E9A46059B5E449846AE42AD4117
:1004400076188E4289410004000C504440446D42AD
:100450004719B846934649428946C344D94498420D
:100460008041A845AD4193459241894589416D42FE
:1004700040422843240C524249420A43039B00193C
:100480008018C7184B46DC0D049B75021D436A1E7D
:1004900095414B46F60D7F0235435A023C431543C6
:1004A000FB0100D41CE101216A080D401543E2075D
:1004B000154364084F496144002900DCB0E06B0734
:1004C00009D00F222A40042A05D02A1DAA42AD4194
:1004D0006D4264191500E30104D58021464AC90024
:1004E00014406144454A914200DD26E76207ED0869
:1004F000640249051543240B4A0D10E75246324366
:1005000000D17FE0002E00D1DCE0300000F048FD9B
:1005100002000B3A1D2301009B1A52460839DA40AB
:100520008E40164352468A40009B3549181A0300F4
:100530008C46634400200093D3E6250005434AD04F
:10054000002C00D1B0E0200000F02AFD01000200E4
:100550000B391D2310005B1A310035000838844028
:10056000D94085400C432648831A009300239946BE
:100570009B4697E60500254326D1082200930223D7
:10058000002491469B468DE65246009B324310D193
:10059000154900268C4663444946009302231943BB
:1005A000894602209DE65B460197022B00D0ADE60E
:1005B000C3E60D4A0320944663444A46009303234E
:1005C0001A43914652468CE60C2200930323050001
:1005D00091469B4666E60423994600230093013327
:1005E00000249B465EE6C046FF07000001FCFFFFBB
:1005F000B01C0008FF030000FFFFFFFEFE07000025
:100600000DFCFFFF494601231943894600260120BE
:1006100067E6002380240025434A019324037EE6F5
:100620000120401A382800DD76E61F285BDD1F22F6
:1006300023005242511ACB401900202803D03B4AD4
:100640006244944025436A1E95412A000A430721CB
:100650000D000024154011425BD00F2100241140F1
:10066000042953D0111D914292415242A4180A000C
:1006700023024BD501220024002550E680231B03D2
:100680001C4209D01E4207D133431C0343461500C8
:10069000240B254A019342E68022120314432403CB
:1006A000214A240B01973AE600F07AFC010002008F
:1006B000153120321C2900DC4BE7340008380025B6
:1006C000844050E700F06CFC03001A001532203023
:1006D0001C2A00DC1EE75646083B00229E4023E70A
:1006E000009B9C46E6E61249220061442E008D40A4
:1006F0008A40C640691E8D4132432A43C440530795
:10070000B6D00F2111400429ACD1B1E765076402CE
:10071000240BD2081543002201E680221203144361
:100720002403014A240BFAE5FF0700003E04000001
:100730001E040000F8B557464E464546DE46E0B575
:100740001E0017004A000B03520D5B0A9046420F31
:100750001A43CD0FCD4C3103C300944670007A0F7D
:10076000490AFF009A46B946400DF60F1143A042D0
:1007700000D1B1E001225640B346B54200D188E035
:100780004246121A002A00DCAEE0002800D1C1E087
:10079000BE48804500D151E1802000040143382A41
:1007A00000DD7BE11F2A00DDEEE120203E00801A03
:1007B0000C00D640D140874062468440521A781ED1
:1007C0008741944634432743DC1BA3429B41624646
:1007D0005B42D31A99464B461B0200D418E14B46A4
:1007E0005802430A99464B46002B00D137E1484650
:1007F00000F0D6FB010008392023220048465B1A8E
:10080000DA4088408C4043461043884500DD36E19D
:10081000C91A4B1C1F2B00DDEAE020222600D21A49
:1008200001009440DE40D84000239140621E944174
:100830008146984631430C43630709D00F23234078
:10084000042B05D0231DA342A4416442A1441C00F3
:100850004B461B0200D4DEE041468C4B01319942ED
:1008600000D1E7E04B468A48E408034018004905F8
:100870005B07400223434A0D040B1205ED07224398
:100880002A4318001100F0BCBB46B246A946A04658
:10089000F8BD4246121A002A52DD002800D19CE021
:1008A000A04500D1CAE0802000040143382A00DDC1
:1008B00049E11F2A00DC97E110000E002038C640F5
:1008C000202A04D04020821A91400F43B9464C465A
:1008D000621E944134433AE10A003A4328D0B346B9
:1008E000B5422BD06B4A4244002A5DD04246444672
:1008F000821A002C00D0F5E065461D4300D19CE132
:10090000551E012A00D1FBE1604CA24200D1BDE19D
:100910002A00F0E00800384300D1C3E0501E012A4D
:1009200000D1A8E1594CA24200D187E0020036E78D
:1009300001225640B346B54200D021E7554A424411
:10094000002A00D1B5E042464446821A002C00D16C
:1009500038E14E4EB04200D1DEE1802664463604D6
:100960003443A446382A00DD96E11F2A00DD24E244
:100970002026B41AA24664465646B440A1461C003E
:100980004E46D440264334005646B3405E1EB34123
:100990001C436346D340C918E419BC42BF417F429F
:1009A000B94680468944D8E040463B4C013020425D
:1009B00000D0B4E04046002800D044E1604618432F
:1009C00000D190E10800384300D0AAE16146DB087D
:1009D00049070B436146CC0827E00800384361D043
:1009E000501E012A00D139E1A24227D002005DE762
:1009F00002001F39CA401100202B03D04022D31A15
:100A000098400443631E9C410023994698460C433A
:100A1000630700D012E74B464A46E4085B072343CE
:100A2000D408424619498A420ED024035205240BA9
:100A3000520D22E70A00002400231EE7DB0862466D
:100A4000520713436246D4081A00224300D1FCE146
:100A500080221203144324030C4A240B0DE72000C8
:100A600000F09EFA010018311F2900DCC4E60838A6
:100A70008440434620000024884500DCC8E6044A40
:100A80005B1A104098468146D6E6C046FF07000034
:100A9000FFFF7FFF01F8FFFFFE0700000F437A1EF4
:100AA000974191E66146DB0849070B436146CC0854
:100AB000B8E74046D34C0130204200D0A2E0404687
:100AC000002800D001E16046184300D15EE1080033
:100AD000384300D05FE16146DB0849070B436146BC
:100AE000CC08A2E7C84DA84200D1CFE080256446DB
:100AF0002D042C43A446382A56DC1F2A00DDD1E001
:100B000020251E00AD1A6446AB40AC40D6405D1EA9
:100B1000AB41344323436446D440091B49E060465B
:100B2000DC1B461AA34280414042814630004E46BB
:100B3000801B8146000276D44B46234300D052E608
:100B40000024002571E739430C00621E9441E4182B
:100B50009C429B415B42634499464B461B0200D436
:100B600056E701239C46A84BE044984538D04B46B5
:100B7000A648012203401800630814401C43C30721
:100B80001C434308994657E610000E002038C64023
:100B9000202A04D04020821A91400F43B9464F4684
:100BA0007A1E974137430FE662461A4313005A1ED6
:100BB0009341FC1AA742BF417F42CB1B99465D4639
:100BC000804608E666461E4300D1BEE0561E012A56
:100BD00000D109E18C4CA24200D119E13200C1E6FA
:100BE00042460024002348E620200C00801A3E00E4
:100BF00087408440D640781E8741D14034433C43EF
:100C00008C44A4E7804A904200D1E9E0DF199F427A
:100C10009B4161445B42C918CC077F084B08994649
:100C200080463C43F4E6FC1AA742BF4163467F423C
:100C3000C91ACB1B99465D46D5E5FF084B075D46B3
:100C40003B43CC08EEE662461A4300D082E00B003C
:100C50003B431BD1802400252403F9E6DC199C4288
:100C60009B41614489465B4299444B461B0244D4F4
:100C700001239846CCE6DC1B6246A3429B41511AF5
:100C80005B42CB1A994601239846A4E5FF084B071F
:100C90005D463B43CC08D7E662461A431400631E08
:100CA0009C4179E615006446203DEC40A046202A90
:100CB00005D040256446AA1A944023439A465446D8
:100CC000631E9C414346234373E762461A4323D085
:100CD0000A003A4300D0A0E06246DB085207134303
:100CE0006246D408B0E60B003B4300D128E7FF087A
:100CF0004B075D463B43CC0897E60223984636E710
:100D0000FC1AA742BF4163467F42C91ACB1B9946D2
:100D100001235D4698465EE54B07FF083B43CC0840
:100D200092E6DC1B6046A342B641401A7642801B25
:100D30008146000260D5FC1AA742BF4163467F424C
:100D4000C91ACB1B99465D4676E5FF084B073B4326
:100D5000CC0867E60A00DB083A4300D16FE662463A
:100D6000520713436246D40880221203144207D06C
:100D7000C808104204D15D460400FB0849070B4334
:100D80005A0FDB00DB08520713435DE64B07FF08F1
:100D90003B43CC0849E6DC199C429B4161448946AF
:100DA0005B4299444B461B0200D431E64A46174B3E
:100DB0001A400123914698462AE616006446203ED2
:100DC000F440A046202A05D040266446B21A94403A
:100DD00023439A465446631E9C4143461C43DBE52D
:100DE00002000024002348E5DC19BC42BF416144F5
:100DF00089467F42B94438E74B46234300D19FE6FA
:100E000006E6C046FE070000FF070000FFFF7FFF69
:100E1000FF084B073B43CC0816E66246DB08520747
:100E200013436246D40880221203144207D0C80834
:100E3000104204D15D460400FB0849070B435A0FDA
:100E4000DB005207DB081343FEE50023014A1C00C8
:100E500013E5C046FF0700000A0030B5134C5300ED
:100E600009030500090B00205B0DD20FA34204DD2E
:100E70000F48834202DD0F4BD01830BD8020400365
:100E800001430D48C01A1F2808DD0C48C31AD94079
:100E90000B005842002AF0D11800EEE7084CC5407C
:100EA000A446634499400B002B43F2E7FE03000085
:100EB0001D040000FFFFFF7F330400001304000047
:100EC000EDFBFFFF70B5002816D0C317C5185D40B5
:100ED000C40F280000F064F8114A121A0A2816DC20
:100EE00003002E0015339E400B23181AC5405205EF
:100EF0002D032D0B530D03E00024002300250026B5
:100F00001B052B43E40723433000190070BD0B3849
:100F1000854052052D0300262D0B530DF0E7C046EA
:100F20001E0400008446100062468C461900634689
:100F300000E0C0461FB500F0F9F8002801D40021F8
:100F4000C8421FBD10B500F049F84042013010BD45
:100F500010B500F0EBF8002801DB002010BD0120E7
:100F600010BDC04610B500F0E1F8002801DD0020FA
:100F700010BD012010BDC04610B500F071F800286A
:100F800001DC002010BD012010BDC04610B500F0EE
:100F900067F8002801DA002010BD012010BDC0460E
:100FA0001C2101231B04984201D3000C10391B0A99
:100FB000984201D3000A08391B09984201D300095D
:100FC000043902A2105C40187047C04604030202B4
:100FD000010101010000000000000000F0B54E46D4
:100FE0004546DE4657469046E0B517001A03120BF9
:100FF0000500844619480E034C0091465A00DB0F49
:101000009B46360B640DC90F520D844219D08242A3
:1010100010D0012094420ED14E450CD10120C44580
:1010200009D1594517D0002C05D130002843431E63
:10103000984100E00120F0BCBB46B246A946A0465C
:10104000F0BD330001202B43F5D1A242F3D14B4632
:101050003B43F0D1E2E70020EDE7C046FF07000088
:10106000F0B54746CE460400180016001B031B0BC4
:101070002D4D4A00994680B543000F03A446B04663
:101080003F0B520DC90F5B0DC00FAA4221D0AB42DE
:1010900013D0002A22D13C43002B02D14D462E43CF
:1010A00022D0002C10D0814222D0022001390840E9
:1010B0000138C0BCB946B046F0BD4D462E4329D1DB
:1010C000002AF0D13C43EED10028F2D10120404269
:1010D000EFE73D0025431DD19342EED0002BE2D136
:1010E0004C462643DFD1E0E70020002CE1D0DCE7CE
:1010F0009A420ADCE8DB4F45D7D80ED000204F4596
:10110000D7D20029E2D00800D3E74342584140003B
:101110000138CEE702204042CBE7C445C5D80020C5
:10112000C445C6D2EDE7C046FF070000F0B547460C
:10113000CE460400180016001B031B0B2C4D4A0062
:10114000994680B543000F03A446B0463F0B520DAD
:10115000C90F5B0DC00FAA420DD0AB4210D0002AC0
:1011600027D13C43002B11D14D462E430ED10020F8
:10117000002C15D00EE03D00254310D1934218D12C
:101180004D462E430BD1002A02D13C43002C0BD0FC
:10119000814214D0022001390840013800E00220C9
:1011A000C0BCB946B046F0BD0028F9D1012040428C
:1011B000F6E7002BECD14C462643E9D1EAE79A4208
:1011C00004DD4342584140000138E9E79A42EBDB35
:1011D0004F45DFD806D000204F45E1D20029E5D0A9
:1011E0000800DDE7C445D5D80020C445D8D2F5E7CE
:1011F000FF07000080230F4ADB0251690B430C21DB
:1012000053610D4B1A688A431A600422186802431E
:1012100002201A605A6882435A609A688A439A6028
:10122000DA688A43DA608022996992020A439A61F5
:101230007047C0460010024000040048F7B53F4B1D
:10124000002205000C0008684968FFF707F8FFF75F
:1012500003FE030000B21B042BD52D232B70FFF7D8
:1012600031FE0022364BFEF7F9FF206061602068F6
:1012700061680022334BFEF7F1FFFEF7D1FF84B225
:10128000092C19D8302302276B702E22B021FBB213
:10129000EA555A1CD2B23034AC549A1CD2B2A9547A
:1012A000DA1CD2B26D39A95400220433DBB2EA54FD
:1012B000F7BD2B232B70DAE7FA26B600B44213D31E
:1012C00031002000FEF720FF303068703100200030
:1012D000FEF7A0FF8CB2632C0BD830230327AB7032
:1012E000092CD2D9032616E00127632C02D8012647
:1012F00011E00227FBB2642120000193FEF704FFF6
:101300003030E85564212000FEF784FF8CB27E1C4B
:10131000092C0ED976B20A212000FEF7F5FE3030F6
:10132000A8550A212000FEF775FF771C7FB28CB20A
:10133000ABE73023019FAB550237A6E700006040C2
:10134000000080BF0000244070B588B000F0F6F9BE
:1013500000F078F8FFF74EFF9620800100F098FB30
:101360009022D205022301211000C82500F028FA9E
:101370000224AD00FA262B4800F0D6FBF600202010
:1013800000F0A6F9002837D000F03EF96B46DE1CCD
:10139000D870254800F0C8FB30000022012100F081
:1013A000D9FB224E300000F0BFFB01A800F0BEF9CF
:1013B00000280AD01E4800F0B7FB01A82022210017
:1013C00000F0C8FB300000F0AFFB002102A800F0E5
:1013D00039F900281BD002A905A8FFF72FFF1548EF
:1013E00000F0A2FB05A800F09FFB300000F09CFB82
:1013F000280000F05DF8E8E70F4800F095FB3000AA
:1014000000F056F80D4A536963405361B7E70C4842
:1014100000F08AFB280000F04BF8084A536963404B
:101420005361A7E7F01C0008161D00086D1D000899
:101430003A1D0008701D0008541D000800040048F3
:10144000781D000880230C4A1B0191690B439361AE
:1014500017220A4B0A499A620A4ADA6200225A6241
:101460009A680A4001219A601A680A431A601A6948
:101470000A42FCD07047C04600100240002C0140D8
:10148000FFBFFFFFFFFF00000022034B5A625A6AB2
:101490008242FCD97047C046002C01400022034B19
:1014A00040005A625A6A8242FCD97047002C0140BF
:1014B00070B5FA250400AD00002C00D170BD2800E5
:1014C000013CFFF7EBFFF7E7F0B50023012403250C
:1014D0000A001A41224205D02F005E00B740026880
:1014E000BA4302600133102BF2D1F0BDF0B50023F6
:1014F000012403260A001A41224208D037005D0069
:10150000AF400268BA432700AF403A43026001335C
:10151000102BEFD1F0BD0000B8231B06C01801232B
:10152000800A113080B28340024A51690B435361F3
:101530007047C04600100240F0B587B002930CAB74
:101540001B78944603930DAB1B78013A0493B823A0
:101550001B06C3189B0A1133DBB200930023D2B2DF
:1015600001910592019A01211A410A4228D00E00E8
:101570009E40009A15495400625A32436252032435
:1015800059008C40C268E743A2431500039A8A4081
:101590001543C5600268A24364468C402243026042
:1015A000059A012A0CD8029C42689C40B243A4B21E
:1015B0002243426082683A40049F8F403A438260EF
:1015C0000133102BCED107B0F0BDC0462C00002057
:1015D000F0B585B01E000AAB1B78040002930BAB7C
:1015E0001B780D001700039300290BD0FFF794FF21
:1015F000039B3A000193029B2900009320003300D3
:10160000FFF79AFF05B0F0BD014B18787047C04650
:101610004200002010B504001300034A10780A00AD
:10162000210000F0EDF910BD4200002010B50400CB
:101630001300034A10780A00210000F008FA10BDD8
:101640004200002073B501AE0500022208003100FF
:10165000FFF7E0FF041E0BD0308840BA80B2FFF7DE
:1016600031FCFE2300229B05FEF7F8FD286069602F
:10167000200076BD13B501226B460400D91D100071
:10168000FFF7C8FF00280BD06B46D8797F230122D3
:1016900018406B462043D871D91D1000FFF7C6FFD4
:1016A00016BD13B56B46040001220420D91DFFF7B7
:1016B000B1FF00280BD06B46D879602398436B4666
:1016C0002043D87101220420D91DFFF7AFFF16BDBA
:1016D00037B590236A4600241370023353700233E7
:1016E00093700433D37002331371023353716B461A
:1016F0001D5D280000F07CF9002804D10134062C7F
:10170000F5D100203EBD084B80201D70FFF7B2FFD1
:101710000028F6D02020FFF7C4FF0028F1D00020D9
:10172000FFF7A8FFEEE7C0464200002007B50222FF
:10173000019001A90720FFF76DFF0EBD10221D4B80
:1017400019680A431A60012219680A431A60802244
:10175000194B520219680A431A60802292021968D2
:101760001142FCD0DA6A1549DA625A680A40F0215F
:101770005A605A6889030A405A608822596852039D
:101780000A435A608022196852040A431A60802270
:10179000920419681142FCD003215A688A435A60A6
:1017A000022259680A430C215A605A680A40082AE2
:1017B000FBD170470020024000100240FFFFFEFFF7
:1017C000F0B585B000270393022314000193012292
:1017D0003B00009706000D00FFF7FAFE02230122EE
:1017E000019320003B0003990097FFF7F1FE044BA3
:1017F000039A1E601D815C605A8105B0F0BDC04631
:101800004400002010B5154C61896068FFF76EFE3A
:1018100062686389516905200B435361FFF734FE09
:1018200022682389516905200B435361FFF72CFE81
:1018300062686189536905208B435361FFF724FE79
:1018400022682189536905208B435361FFF71CFEF1
:1018500061896068FFF738FE10BDC0464400002073
:1018600010B5134C61896068FFF740FE2268238938
:10187000516905200B435361FFF706FE62686189D9
:10188000536905208B435361FFF7FEFD626863894E
:10189000516905200B435361FFF7F6FD226821894A
:1018A000536960688B4353616189FFF70DFE10BD7A
:1018B00044000020F8B5284C050061896068FFF7F6
:1018C00015FE0826052769B26368628900293FDA98
:1018D00059690A435A613800FFF7D6FD2268238907
:1018E000516938000B435361FFF7CEFD226821890F
:1018F0005369013E8B436D00F6B25361EDB2002E89
:10190000E1D161896068FFF7DFFD62686389516931
:1019100005200B435361FFF7B7FD22682389516906
:1019200005200B435361FFF7AFFD6068226805692E
:101930002189536966898B43536143693540B343B9
:1019400043616B425D413100FFF7BEFDE8B2F8BD77
:10195000596991435961BEE744000020F8B5082653
:1019600000250527214C61896068FFF7BFFD61896B
:101970006068FFF7A9FD6268638951690B43536191
:1019800022682389516938000B435361FFF77CFDBE
:1019900063686D001A696389EDB21A4201D00123B0
:1019A0001D43226821895369013E8B4338005361EE
:1019B000F6B2FFF769FD002EE2D1606861894369E4
:1019C0008B434361FFF792FD0520FFF75DFD226821
:1019D0002389516905200B435361FFF755FD2268A8
:1019E0002189536928008B435361F8BD44000020CE
:1019F00010B50400FFF706FF2000FFF75BFF10BDE6
:101A0000F8B505000F0014001E00FFF7FBFE2800CC
:101A1000FFF750FF002802D100252800F8BD38004C
:101A2000FFF748FF0028F7D00135FFF7EBFEE8B2DB
:101A3000FFF740FFA619051EEED0A64202D1FFF720
:101A40000FFFEAE7FFF78AFF20700134F5E7F8B5EA
:101A500007000C0015001E00FFF7D4FE3800FFF74A
:101A600029FF002802D100242000F8BD2000FFF744
:101A700021FFAE19041EF6D0B54202D1FFF7F0FEE9
:101A8000F2E72878FFF716FF01350400F4E70000BD
:101A900080221F4B010058699202024310B55A611F
:101AA00080229869D20102439A619023A022DB052B
:101AB0001868920302431A608822586A520002434F
:101AC0005A62144B4808C018FEF71EFB124B13490C
:101AD000D8601A68C6240A401A600C22196880204F
:101AE0000A431A6020221968A4000A430C491A60AC
:101AF0000A5900061202120A02430A5180221205F4
:101B00000A60012207490A7319680A431A6010BD66
:101B100000100240006CDC0200380140FFCFFFFFE4
:101B200000E100E00000002010B5084B1B7B002BFB
:101B300004D04021064A0378002B00D110BDD4699F
:101B40000C42FCD09BB201301385F4E7000000206A
:101B500000380140F7B501900020184B1B7B8342F1
:101B600006D04C1E4027A446154B84B2A14200D893
:101B7000F7BD019C265C340925003035392D01D98B
:101B8000373425000F24264034003034392C00D956
:101B90000734DE693E42FCD0ADB21D85DD693D42B1
:101BA000FCD0A4B21C85002A06D0844504DDDC6983
:101BB0003C42FCD094B21C850130D6E700000020E6
:101BC000003801400A4BDA88198891420FD25988AF
:101BD000914201D100225A80064A9868918C5A8815
:101BE00081545A8801325A801A8801321A8070470B
:101BF0000000002000380140704700000D48854675
:101C0000FFF7FAFF0C480D490D4A002302E0D458B3
:101C1000C4500433C4188C42F9D30A4A0A4C002336
:101C200001E013600432A242FBD300F011F8FFF789
:101C30008BFBFEE7001000200000002010000020B9
:101C4000941D00081000002090000020FEE7000016
:101C500070B500260C4D0D4C641BA410A64209D192
:101C6000002600F019F80A4D0A4C641BA410A64285
:101C700005D170BDB300EB5898470136EEE7B300CD
:101C8000EB5898470136F2E78C1D00088C1D0008C0
:101C90008C1D0008901D0008F8B5C046F8BC08BCB3
:101CA0009E467047F8B5C046F8BC08BC9E467047D3
:101CB000420300080003000800030008FC020008BB
:101CC000060300080603000812060008FC020008CC
:101CD000060300081206000806030008FC020008BC
:101CE000A6050008A6050008A60500087C06000851
:101CF0005365616368696E67204C4D3733207465A6
:101D00006D70657261747572652073656E736F7244
:101D10002E2E2E0D0A004C4D37332073656E736FD7
:101D20007220697320666F756E642077697468200D
:101D3000616464726573733A20004C4D37332073CD
:101D4000656E736F722068617320494420636F640D
:101D5000653A20004C4D37332073656E736F7220E7
:101D60006973206E6F7420666F756E64210D0A00B2
:101D700074656D70203D200052656164696E672056
:0C1D80004572726F72210D0A0000000015
:041D8C00E900000862
:041D9000C100000886
:101D9400000000000000400050000020000000008F
:0400000508001BFDD7
:00000001FF
