:020000040800F2
:10000000001000203D2600088D2600088D260008DF
:1000100000000000000000000000000000000000E0
:100020000000000000000000000000008D26000815
:1000300000000000000000008D2600088D2600084A
:100040008D2600088D2600088D2600088D260008C4
:100050008D2600088D2600088D2600088D260008B4
:10006000000000008D2600088D2600088D2600085F
:100070008D2600088D2600088D260008000000004F
:100080008D2600088D260008000000008D2600083F
:100090008D2600088D2600088D2600088D26000874
:1000A0008D2600088D2600088D26000805260008EC
:1000B0008D2600088D260008000000008D2600080F
:1000C00010B5064C2378002B07D1054B002B02D02E
:1000D000044800E000BF0123237010BD1000002081
:1000E00000000000E8260008044B10B5002B03D0E8
:1000F0000349044800E000BF10BDC04600000000F6
:1001000014000020E8260008002243088B4274D324
:1001100003098B425FD3030A8B4244D3030B8B4208
:1001200028D3030C8B420DD3FF22090212BA030C11
:100130008B4202D31212090265D0030B8B4219D3F2
:1001400000E0090AC30B8B4201D3CB03C01A524112
:10015000830B8B4201D38B03C01A5241430B8B425A
:1001600001D34B03C01A5241030B8B4201D30B0343
:10017000C01A5241C30A8B4201D3CB02C01A52416A
:10018000830A8B4201D38B02C01A5241430A8B422D
:1001900001D34B02C01A5241030A8B4201D30B0216
:1001A000C01A5241CDD2C3098B4201D3CB01C01A30
:1001B000524183098B4201D38B01C01A524143093A
:1001C0008B4201D34B01C01A524103098B4201D328
:1001D0000B01C01A5241C3088B4201D3CB00C01A95
:1001E000524183088B4201D38B00C01A524143080D
:1001F0008B4201D34B00C01A5241411A00D2014632
:10020000524110467047FFE701B5002000F006F8A4
:1002100002BDC0460029F7D076E770477047C04658
:1002200070B500220C4B04000D0001F087FB002884
:1002300004D12000290001F0CFFA70BD064B002246
:100240002000290000F036FF01F0C6FA80231B06CB
:100250009C466044F1E7C0460000E041F0B5C64668
:1002600043025B0A4E0245004F00DA00C40F9C4671
:10027000700A904600B52D0E3F0EC90FB6098C428C
:100280004BD0EA1B002A36DD002F61D0FF2D00D1B4
:10029000ADE08023DB041E431B2A00DCD3E00120F9
:1002A0004346181A430100D48CE0800187093800C6
:1002B00001F04EFB05388740854200DCB6E02D1A80
:1002C000B3483840430704D00F230340042B00D029
:1002D0000430430100D478E06A1CFE2D65D0800113
:1002E000430A9C46D2B26346D0051843E407204334
:1002F00080BCB846F0BD002A35D07A1B002D00D056
:10030000AFE04346002B00D1A7E0531E012A00D1E5
:100310002FE1FF2A69D01A00AAE0E91B002970DD4D
:10032000002F37D0FF2D62D08023DB041E431B2912
:1003300000DCB0E001204044430143D50135FF2DEE
:1003400033D00123934A0340400810401843B9E7D3
:10035000002E00D183E0511E012A00D1D8E0FF2AEF
:1003600045D00A0098E7FE276A1C174200D086E0B5
:10037000002D00D0B7E04346002B00D1F3E000226F
:10038000002EB0D0981B430100D4FAE043460C0085
:10039000F01A97E7002E00D1C8E04A1E012900D1CB
:1003A000AEE0FF2923D01100C1E70023FF229C46C5
:1003B00099E7FE216A1C114277D0FF2AF5D015007B
:1003C00046447008430700D07EE7C308FF2D0ED0D7
:1003D0005B025B0A9C46EAB285E7002E07D08022CA
:1003E000D203134203D0104201D10C000300002BB2
:1003F000DBD08020C00318434002430A9C46FF2202
:1004000071E70029D5D07A1B002D60D14346002B1F
:1004100024D0531E012A73D0FF2AE7D01A001B2ACA
:1004200000DC85E001203D00801985E720233A00AB
:10043000451B38000135EA405D1BA840431E98412A
:10044000002510433EE7202330009B1A31009840DE
:10045000D140431E9841084322E70C0003001500D9
:10046000B4E7FF2FC1D080234046DB041843804609
:100470001B2A51DD01200C003D00301A12E74346D3
:100480009F1B7B012BD4002F00D010E700230024FA
:1004900000229C4627E7202332003000CA40591A28
:1004A0008840431E9841104345E7002D4AD14346FA
:1004B000002B63D00022002E00D114E7300040440E
:1004C000430100D47EE7324B013518407AE7FF2F15
:1004D0008CD080234146DB04194388469FE743467E
:1004E0000C00F71AE3E64246002A00D075E7002E1A
:1004F00000D07AE78023DB0300249C46FF22F2E64B
:10050000300040440125430100D45BE7022518E791
:1005100043460125981BC5E6202344464046D44067
:100520009A1A9040431E98412043A4E70D004DE7DE
:10053000202341464046D1409A1A9040431E98419C
:10054000084370E74246002A00D14FE7002E00D151
:100550004DE78022D203134200D148E7104200D079
:1005600045E7030043E7002E90D00C0084460022AC
:10057000B9E643460C00F01A013593E684460022A2
:10058000B1E6002800D01DE7002300249C46AAE61F
:10059000FFFFFFFBFFFFFF7DF0B54F464646D64607
:1005A00044024500C0B5640A0F1C2D0EC60F002D75
:1005B00000D18DE0FF2D00D192E0002380209946EC
:1005C0009A46E400C00404437F3D7802430A9846FB
:1005D0007B001B0EFF0F002B00D170E0FF2B00D122
:1005E00086E04246D00080227F3BED180023D204F3
:1005F000024390469C4631004B467940681C0F2BC5
:100600001CD8764A9B00D3589F4639004446E246A0
:100610005346022B0FD0032B00D1D7E0012B37D14B
:1006200000200024C0052043C9070843E0BCBA46A7
:10063000B146A846F0BDFF200024F3E7260C2404B1
:10064000220C44462404240C434627001B0C574329
:1006500074435A435E4312193B0C9B189C4203D9C6
:1006600080225202944666443F041A043F0CD21979
:100670009401671EBC411B0C920E9B1914439B01F5
:100680001C431B0100D49BE0012362081C4014435F
:1006900002007F32002A64DD630704D00F23234069
:1006A000042B00D00434230103D502004C4B8032CC
:1006B0001C40FE2ABFDCA401640AD0B2B2E7434664
:1006C000002B3DD14A4601331A4391469C4692E79E
:1006D000002C29D104239946033B00259A4674E750
:1006E000002C1BD108239946063BFF259A466CE750
:1006F0004346FF35002B0BD102234A461A4391464D
:100700009C4678E753463100022B00D083E792E7FE
:1007100003234A461A4391469C466CE70C239946AC
:10072000093BFF259A4650E7200001F011F9762594
:10073000431F9C4000236D4299469A462D1A44E778
:10074000404601F005F94246431F9A4000232D1A06
:1007500090469C46763D4EE780240021FF20E4032E
:1007600060E701239B1A1B2B00DD59E722009E3016
:10077000DA4084401300621E94411C43630704D096
:100780000F232340042B00D0043463011AD5012029
:10079000002447E78020C003044209D043460342B7
:1007A00006D14446044364023900FF20640A39E755
:1007B0008020C003044364023100FF20640A31E753
:1007C000280065E7A4010020640A2BE78020C0030D
:1007D00004436402FF20640A24E7C046002700089F
:1007E000FFFFFFF7F8B5CE46474643025B0A4E02CD
:1007F000DA009446720A914645004A0080B52D0EF3
:100800001F00C40F120EC90FB609FF2A5BD00120CA
:1008100041408C4239D0A81A00285ADD002A6AD0FB
:10082000FF2D00D1D9E08022D20416431B2800DC22
:10083000E9E001206346181A430100D4B4E08001C6
:100840008709380001F084F805388740854200DCCC
:10085000CCE02D1AB5483840430704D00F2303409D
:10086000042B00D00430430100D4A0E06A1CFE2D0C
:1008700000D18DE08001470AD2B2D0053843E407A9
:100880002043C0BCB946B046F8BDA81A804600282F
:1008900045DD002A70D0FF2D00D19EE08023DB04CF
:1008A0001E4343461B2B00DCD2E001206044430181
:1008B0007AD50135FF2D6BD001239D4A03404008B6
:1008C00010401843C8E7002E20D08C4223D02800C7
:1008D000FF38002839D0571B002D00D09DE063461B
:1008E000002B00D1DBE07B1E012F00D10DE1FF2F9B
:1008F00071D01F0098E0002E00D1A7E0421E012811
:1009000000D1E6E0FF2868D010008FE701204140C9
:10091000A14200D07FE7FF2040428046A8444046E5
:10092000002838D0511B002D00D1AEE0FF2A00D1A5
:10093000DFE080236046DB04184384461B2900DC8B
:10094000D9E0012015008019B1E7FE206A1C104291
:1009500071D1002D00D0A6E06346002B00D1D9E074
:100960000022002E00D188E7981B430100D4E1E06B
:1009700063460C00F01A6FE7002E00D1B7E00200CA
:10098000013A012800D19CE0FF2826D0904688E754
:10099000FF22002771E7FE206A1C104264D0FF2A64
:1009A000F6D0150066447008430700D056E7C30828
:1009B000FF2D12D05B025F0AEAB25EE76246002AB0
:1009C00000D196E0002E08D08022D203134204D03A
:1009D0004846104201D10C004B46002BD8D080274E
:1009E000FF031F437F02FF227F0A46E720233A00CE
:1009F000451B38000135EA405D1BA840431E984165
:100A00000025104328E720231B1A32009E40C240D5
:100A10003000431E984110430CE7FF2ADBD08023AF
:100A20006046DB04184384461B2F56DD01200C0072
:100A30001500301A00E763469F1B7B013DD4002F51
:100A400000D0FEE600240022002716E70500AFE7ED
:100A5000320043464146DA4020235B1A9E40300074
:100A6000431E9841104321E7002DA7D16346002B78
:100A700059D00022002E00D1FFE63000604443012F
:100A800092D52A4B013518408EE76346002B47D09C
:100A90004B1E012915D0FF292BD019004EE70C0061
:100AA0004B463D0084E76246002A8BD1002E92D14E
:100AB00080270024FF22FF03DFE663460C00F71ABD
:100AC000BFE6300060440125430100D46CE70225F5
:100AD000F2E663460125981BAEE620236446604695
:100AE000FC40DF1BB840431E984120439FE70500B0
:100AF0005EE74B4671E7202365466046CD40591AB4
:100B00008840431E984128431CE763460C0001259A
:100B1000F01A91E6002E95D00C004F460022ACE66C
:100B20004B460D0044E74F460022A6E6FFFFFFFBC1
:100B3000FFFFFF7D002800D036E7002400279CE659
:100B4000F8B5002813D0C317C6185E40C40F300094
:100B500000F0FEFE9E2305001B1A962B0FDC0828D2
:100B600001DD083DAE407602760AD8B202E00024EC
:100B700000200026C0053043E4072043F8BD992B30
:100B80000CDD05223100121AD1400A0001003000AC
:100B90001B318840411E884102431600052D12DC9E
:100BA00031000D4F3940720709D00F203040042822
:100BB00005D004314A0102D59F2339405B1B8901CE
:100BC0004E0AD8B2D6E76A1F96403100024F39402C
:100BD0007207F4D0E9E7C046FFFFFFFBF0B55746C8
:100BE0004E464546DE46E0B598460C034B000600EF
:100BF000924687B0240B5B0DCF0F002B00D15CE138
:100C0000D94A934200D175E1420FE4001443802297
:100C100012041443D54AC50094466344009300234C
:100C200099469B46434642461E03D20F5B00504600
:100C30009046360B5B0D00D120E1CB4A934200D1A8
:100C400062E1CA49420F8C4600996344F6008C4623
:100C5000164380229C44120463461643C2000020BF
:100C600000930099434601318C4649467B400193ED
:100C70000F2926D8BE4B890059588F464346019309
:100C80003400150083465B46022B16D0032B00D19F
:100C900003E2012B00D0CDE0002200240025019BBF
:100CA00012052243DB071A432800110007B0F0BCED
:100CB000BB46B246A946A046F0BD00240025AA4A7C
:100CC000EDE7280C2D042D0C2B00110C1204120C36
:100CD0005343984613002F00434399464F434F44D4
:100CE000BB4647460B003F0CBA464343DA440293E7
:100CF000D14504D980277F02B9464B44029353461D
:100D00001B0C9B4653461F0443461B041B0C984672
:100D10003B0043440493330C3604360C98463300AE
:100D200043439946434643432F009A4643467743FD
:100D30005D43380C4D444519A94503D980235B0216
:100D40009946CA443F04280C3F0C2D04ED19270C8A
:100D50002404240C0300200050437A4391463A00B7
:100D600053440593030C9A464A4361434944514412
:100D7000AB44894503D980235B0299464A44000469
:100D80000B0C000C090409182000994643467043D7
:100D90005C437E435F43030C9846A41944444A4491
:100DA0000397A64204D980235B02984647440397E1
:100DB0002304029E9A46059B5E449846AE42AD418E
:100DC00076188E4289410004000C504440446D4224
:100DD0004719B846934649428946C344D944984284
:100DE0008041A845AD4193459241894589416D4275
:100DF00040422843240C524249420A43039B0019B3
:100E00008018C7184B46DC0D049B75021D436A1EF3
:100E100095414B46F60D7F0235435A023C4315433C
:100E2000FB0100D41CE101216A080D401543E207D3
:100E3000154364084F496144002900DCB0E06B07AA
:100E400009D00F222A40042A05D02A1DAA42AD410A
:100E50006D4264191500E30104D58021464AC9009A
:100E600014406144454A914200DD26E76207ED08DF
:100E7000640249051543240B4A0D10E752463243DC
:100E800000D17FE0002E00D1DCE0300000F060FDFA
:100E900002000B3A1D2301009B1A52460839DA4022
:100EA0008E40164352468A40009B3549181A03006B
:100EB0008C46634400200093D3E6250005434AD0C6
:100EC000002C00D1B0E0200000F042FD0100020043
:100ED0000B391D2310005B1A31003500083884409F
:100EE000D94085400C432648831A00930023994635
:100EF0009B4697E60500254326D10822009302234E
:100F0000002491469B468DE65246009B324310D109
:100F1000154900268C466344494600930223194331
:100F2000894602209DE65B460197022B00D0ADE684
:100F3000C3E60D4A0320944663444A4600930323C4
:100F40001A43914652468CE60C2200930323050077
:100F500091469B4666E6042399460023009301339D
:100F600000249B465EE6C046FF07000001FCFFFF31
:100F700040270008FF030000FFFFFFFEFE07000000
:100F80000DFCFFFF49460123194389460026012035
:100F900067E6002380240025434A019324037EE66C
:100FA0000120401A382800DD76E61F285BDD1F226D
:100FB00023005242511ACB401900202803D03B4A4B
:100FC0006244944025436A1E95412A000A43072142
:100FD0000D000024154011425BD00F210024114068
:100FE000042953D0111D914292415242A4180A0083
:100FF00023024BD501220024002550E680231B0349
:101000001C4209D01E4207D133431C03434615003E
:10101000240B254A019342E6802212031443240341
:10102000214A240B01973AE600F092FC01000200ED
:10103000153120321C2900DC4BE73400083800252C
:10104000844050E700F084FC03001A001532203081
:101050001C2A00DC1EE75646083B00229E4023E780
:10106000009B9C46E6E61249220061442E008D401A
:101070008A40C640691E8D4132432A43C44053070B
:10108000B6D00F2111400429ACD1B1E76507640245
:10109000240BD2081543002201E6802212031443D8
:1010A0002403014A240BFAE5FF0700003E04000078
:1010B0001E040000F8B557464E464546DE46E0B5EC
:1010C0001E0017004A000B03520D5B0A9046420FA8
:1010D0001A43CD0FCD4C3103C300944670007A0FF4
:1010E000490AFF009A46B946400DF60F1143A04247
:1010F00000D1B1E001225640B346B54200D188E0AC
:101100004246121A002A00DCAEE0002800D1C1E0FD
:10111000BE48804500D151E1802000040143382AB7
:1011200000DD7BE11F2A00DDEEE120203E00801A79
:101130000C00D640D140874062468440521A781E47
:101140008741944634432743DC1BA3429B416246BC
:101150005B42D31A99464B461B0200D418E14B461A
:101160005802430A99464B46002B00D137E14846C6
:1011700000F0EEFB010008392023220048465B1AEC
:10118000DA4088408C4043461043884500DD36E114
:10119000C91A4B1C1F2B00DDEAE020222600D21AC0
:1011A00001009440DE40D84000239140621E9441EB
:1011B0008146984631430C43630709D00F232340EF
:1011C000042B05D0231DA342A4416442A1441C006A
:1011D0004B461B0200D4DEE041468C4B0131994264
:1011E00000D1E7E04B468A48E4080340180049056F
:1011F0005B07400223434A0D040B1205ED0722430F
:101200002A4318001100F0BCBB46B246A946A046CE
:10121000F8BD4246121A002A52DD002800D19CE097
:10122000A04500D1CAE0802000040143382A00DD37
:1012300049E11F2A00DC97E110000E002038C6406B
:10124000202A04D04020821A91400F43B9464C46D0
:10125000621E944134433AE10A003A4328D0B3462F
:10126000B5422BD06B4A4244002A5DD042464446E8
:10127000821A002C00D0F5E065461D4300D19CE1A8
:10128000551E012A00D1FBE1604CA24200D1BDE114
:101290002A00F0E00800384300D1C3E0501E012AC4
:1012A00000D1A8E1594CA24200D187E0020036E704
:1012B00001225640B346B54200D021E7554A424488
:1012C000002A00D1B5E042464446821A002C00D1E3
:1012D00038E14E4EB04200D1DEE18026644636044D
:1012E0003443A446382A00DD96E11F2A00DD24E2BB
:1012F0002026B41AA24664465646B440A1461C00B5
:101300004E46D440264334005646B3405E1EB34199
:101310001C436346D340C918E419BC42BF417F4215
:10132000B94680468944D8E040463B4C01302042D3
:1013300000D0B4E04046002800D044E160461843A5
:1013400000D190E10800384300D0AAE16146DB08F3
:1013500049070B436146CC0827E00800384361D0B9
:10136000501E012A00D139E1A24227D002005DE7D8
:1013700002001F39CA401100202B03D04022D31A8B
:1013800098400443631E9C410023994698460C43B1
:10139000630700D012E74B464A46E4085B07234345
:1013A000D408424619498A420ED024035205240B20
:1013B000520D22E70A00002400231EE7DB086246E4
:1013C000520713436246D4081A00224300D1FCE1BD
:1013D00080221203144324030C4A240B0DE720003F
:1013E00000F0B6FA010018311F2900DCC4E6083805
:1013F0008440434620000024884500DCC8E6044AB7
:101400005B1A104098468146D6E6C046FF070000AA
:10141000FFFF7FFF01F8FFFFFE0700000F437A1E6A
:10142000974191E66146DB0849070B436146CC08CA
:10143000B8E74046D34C0130204200D0A2E04046FD
:10144000002800D001E16046184300D15EE10800A9
:10145000384300D05FE16146DB0849070B43614632
:10146000CC08A2E7C84DA84200D1CFE08025644651
:101470002D042C43A446382A56DC1F2A00DDD1E077
:1014800020251E00AD1A6446AB40AC40D6405D1E20
:10149000AB41344323436446D440091B49E06046D2
:1014A000DC1B461AA34280414042814630004E4632
:1014B000801B8146000276D44B46234300D052E67F
:1014C0000024002571E739430C00621E9441E418A2
:1014D0009C429B415B42634499464B461B0200D4AD
:1014E00056E701239C46A84BE044984538D04B462C
:1014F000A648012203401800630814401C43C30798
:101500001C434308994657E610000E002038C64099
:10151000202A04D04020821A91400F43B9464F46FA
:101520007A1E974137430FE662461A4313005A1E4C
:101530009341FC1AA742BF417F42CB1B99465D46AF
:10154000804608E666461E4300D1BEE0561E012ACC
:1015500000D109E18C4CA24200D119E13200C1E670
:1015600042460024002348E620200C00801A3E005A
:1015700087408440D640781E8741D14034433C4365
:101580008C44A4E7804A904200D1E9E0DF199F42F1
:101590009B4161445B42C918CC077F084B089946C0
:1015A00080463C43F4E6FC1AA742BF4163467F42B3
:1015B000C91ACB1B99465D46D5E5FF084B075D462A
:1015C0003B43CC08EEE662461A4300D082E00B00B3
:1015D0003B431BD1802400252403F9E6DC199C42FF
:1015E0009B41614489465B4299444B461B0244D46B
:1015F00001239846CCE6DC1B6246A3429B41511A6C
:101600005B42CB1A994601239846A4E5FF084B0795
:101610005D463B43CC08D7E662461A431400631E7E
:101620009C4179E615006446203DEC40A046202A06
:1016300005D040256446AA1A944023439A4654464E
:10164000631E9C414346234373E762461A4323D0FB
:101650000A003A4300D0A0E06246DB085207134379
:101660006246D408B0E60B003B4300D128E7FF08F0
:101670004B075D463B43CC0897E60223984636E786
:10168000FC1AA742BF4163467F42C91ACB1B994649
:1016900001235D4698465EE54B07FF083B43CC08B7
:1016A00092E6DC1B6046A342B641401A7642801B9C
:1016B0008146000260D5FC1AA742BF4163467F42C3
:1016C000C91ACB1B99465D4676E5FF084B073B439D
:1016D000CC0867E60A00DB083A4300D16FE66246B1
:1016E000520713436246D40880221203144207D0E3
:1016F000C808104204D15D460400FB0849070B43AB
:101700005A0FDB00DB08520713435DE64B07FF0867
:101710003B43CC0849E6DC199C429B416144894625
:101720005B4299444B461B0200D431E64A46174BB4
:101730001A400123914698462AE616006446203E48
:10174000F440A046202A05D040266446B21A9440B0
:1017500023439A465446631E9C4143461C43DBE5A3
:1017600002000024002348E5DC19BC42BF4161446B
:1017700089467F42B94438E74B46234300D19FE670
:1017800006E6C046FE070000FF070000FFFF7FFFE0
:10179000FF084B073B43CC0816E66246DB085207BE
:1017A00013436246D40880221203144207D0C808AB
:1017B000104204D15D460400FB0849070B435A0F51
:1017C000DB005207DB081343FEE50023014A1C003F
:1017D00013E5C046FF0700000A0030B5134C530064
:1017E00009030500090B00205B0DD20FA34204DDA5
:1017F0000F48834202DD0F4BD01830BD80204003DC
:1018000001430D48C01A1F2808DD0C48C31AD940EF
:101810000B005842002AF0D11800EEE7084CC540F2
:10182000A446634499400B002B43F2E7FE030000FB
:101830001D040000FFFFFF7F3304000013040000BD
:10184000EDFBFFFF70B543004602C40FFE201B0EE8
:10185000591C750A08420CD0E022920094466D078C
:10186000360B63441B053343E40723432800190068
:1018700070BD002B14D1002D1BD0280000F068F89B
:101880000A281CDC0B232E001B1ADE400300153334
:101890009D400E4A3603121A5205360B530DE1E7EE
:1018A000002D09D08022360B1203094B6D07164319
:1018B000D8E700230026D5E70026054BD2E7030032
:1018C0000B3B9D402E000025E3E7C0468903000046
:1018D000FF0700008446100062468C4619006346EC
:1018E00000E0C0461FB500F0F9F8002801D400213F
:1018F000C8421FBD10B500F049F84042013010BD8C
:1019000010B500F0EBF8002801DB002010BD01202D
:1019100010BDC04610B500F0E1F8002801DD002040
:1019200010BD012010BDC04610B500F071F80028B0
:1019300001DC002010BD012010BDC04610B500F034
:1019400067F8002801DA002010BD012010BDC04654
:101950001C2101231B04984201D3000C10391B0ADF
:10196000984201D3000A08391B09984201D30009A3
:10197000043902A2105C40187047C04604030202FA
:10198000010101010000000000000000F0B54E461A
:101990004546DE4657469046E0B517001A03120B3F
:1019A0000500844619480E034C0091465A00DB0F8F
:1019B0009B46360B640DC90F520D844219D08242EA
:1019C00010D0012094420ED14E450CD10120C445C7
:1019D00009D1594517D0002C05D130002843431EAA
:1019E000984100E00120F0BCBB46B246A946A046A3
:1019F000F0BD330001202B43F5D1A242F3D14B4679
:101A00003B43F0D1E2E70020EDE7C046FF070000CE
:101A1000F0B54746CE460400180016001B031B0B0A
:101A20002D4D4A00994680B543000F03A446B046A9
:101A30003F0B520DC90F5B0DC00FAA4221D0AB4224
:101A400013D0002A22D13C43002B02D14D462E4315
:101A500022D0002C10D0814222D00220013908402F
:101A60000138C0BCB946B046F0BD4D462E4329D121
:101A7000002AF0D13C43EED10028F2D101204042AF
:101A8000EFE73D0025431DD19342EED0002BE2D17C
:101A90004C462643DFD1E0E70020002CE1D0DCE714
:101AA0009A420ADCE8DB4F45D7D80ED000204F45DC
:101AB000D7D20029E2D00800D3E743425841400082
:101AC0000138CEE702204042CBE7C445C5D800200C
:101AD000C445C6D2EDE7C046FF070000F0B5474653
:101AE000CE460400180016001B031B0B2C4D4A00A9
:101AF000994680B543000F03A446B0463F0B520DF4
:101B0000C90F5B0DC00FAA420DD0AB4210D0002A06
:101B100027D13C43002B11D14D462E430ED100203E
:101B2000002C15D00EE03D00254310D1934218D172
:101B30004D462E430BD1002A02D13C43002C0BD042
:101B4000814214D0022001390840013800E002200F
:101B5000C0BCB946B046F0BD0028F9D101204042D2
:101B6000F6E7002BECD14C462643E9D1EAE79A424E
:101B700004DD4342584140000138E9E79A42EBDB7B
:101B80004F45DFD806D000204F45E1D20029E5D0EF
:101B90000800DDE7C445D5D80020C445D8D2F5E714
:101BA000FF07000080230F4ADB0251690B430C2121
:101BB00053610D4B1A688A431A6004221868024365
:101BC00002201A605A6882435A609A688A439A606F
:101BD000DA688A43DA608022996992020A439A613C
:101BE0007047C0460010024000040048F7B50500E9
:101BF00008680C00FFF726FE3C4B0022FEF7EEFFC4
:101C0000FFF7EAFD030000B21B042AD52D232B7039
:101C1000FEF796FF3649FEF7BFFC20602068FFF70D
:101C200011FE0022334BFEF7D9FFFEF7F9FA84B21A
:101C3000092C19D8302302276B702E22B021FBB259
:101C4000EA555A1CD2B23034AC549A1CD2B2A954C0
:101C5000DA1CD2B26D39A95400220433DBB2EA5443
:101C6000F7BD2B232B70D9E7FA26B600B44213D365
:101C700031002000FEF748FA303068703100200053
:101C8000FEF7C8FA8CB2632C0BD830230327AB7055
:101C9000092CD2D9032616E00127632C02D801268D
:101CA00011E00227FBB2642120000193FEF72CFA19
:101CB0003030E85564212000FEF7ACFA8CB27E1C6F
:101CC000092C0ED976B20A212000FEF71DFA303019
:101CD000A8550A212000FEF79DFA771C7FB28CB22E
:101CE000ABE73023019FAB550237A6E70000304039
:101CF000000080BD0000244070B598B000F0A6FB45
:101D000000F098F8FFF74EFF9620800100F0E0FB0E
:101D100090211022C90503A800F058FA20240023BE
:101D200001253949CA6922424CD0FA26374800F0C9
:101D30001BFC0225F60003A800F0EDFA03A800F052
:101D4000F3FA002849D001A903A800F05CFB304851
:101D500000F00AFC2022082101A800F01BFC2D4CF9
:101D6000200000F001FC01A800F08BF9002830D021
:101D7000294800F0F9FBC8260C22962501A903A8E2
:101D800000F022F9B600ED0001A903A800F08AF8DE
:101D90000028F9D0300000F079F86A4601A903A8BC
:101DA00000F094F8002823D0694608A8FFF71EFF2A
:101DB0001A4800F0D9FB08A800F0D6FB200000F07C
:101DC000D3FBE1E7002BADD1154800F0CDFB2B0094
:101DD000A7E7144800F0C8FBADE7134800F0C4FBC8
:101DE000300000F053F8114A53696B405361A2E789
:101DF0000F4800F0B9FB280000F048F802230B4A16
:101E000051694B405361BFE700380140A5270008E6
:101E1000CE27000846280008E727000849280008C0
:101E2000802700080A28000831280008000400481C
:101E30005128000880230C4A1B0191690B439361D0
:101E40002F220A4B0A499A620A4ADA6200225A622F
:101E50009A680A4001219A601A680A431A601A694E
:101E60000A42FCD07047C04600100240002C0140DE
:101E7000FFBFFFFFFFFF00000022034B5A625A6AB8
:101E80008242FCD97047C046002C014070B5FA254B
:101E90000400AD00002C00D170BD2800013CFFF70C
:101EA000EBFFF7E770B50B7804000D000020282B3E
:101EB0000BD1200000F09AF92900200000F09FFAD1
:101EC0002000442100F004FA012070BDF0B50B7829
:101ED00007000C00150085B0282B02D0002005B0AB
:101EE000F0BD00F0D3F90028F8D0380000F07EF9FA
:101EF0002100380000F083FABE21380000F0E8F934
:101F00000024380000F0F5F901AE30550134092CF9
:101F1000F7D12B4800F028FB20222100300000F0F0
:101F200039FB284800F020FB0821300000F073FA4C
:101F3000337A8342D2D138000027348800F056F932
:101F400023B2BB4202DA6442A4B2013703223379DE
:101F500026095B111340190076B20931022B22D0F9
:101F60000C2926D00A2918D02007C00FFEF7E8FD5B
:101F7000FC218905FEF710FB041C3000FEF7E0FD94
:101F8000211CFEF76BF9011C002F03D00020FEF787
:101F900029FC011C01202960A1E7A0081040FEF7E0
:101FA000CFFDFA21E5E72007400FFEF7C9FDF82134
:101FB000DFE70F202040FEF7C3FDF621D9E7C0463A
:101FC0006228000846280008F7B50B7804000E00C8
:101FD00017000020282B43D1200000F007F9310022
:101FE000200000F00CFABE21200000F071F9200062
:101FF00000F07FF9200000F07CF9200000F079F972
:102000000090200000F075F90190200000F071F9B7
:102010000500092F25D19F231D40200000F0E6F880
:102020003100200000F0EBF94E21200000F050F9C3
:102030002000009900F04CF92000019900F048F9C7
:102040002900200000F044F9200000F0CFF8310012
:10205000200000F0D4F92000482100F039F90120D7
:10206000FEBDBF200A2F02D00B2F04D1DF20054078
:102070009F380543D1E70C2FCFD160200543EDB247
:10208000CBE70078283843425841C0B27047F0B5DA
:102090000023012403250A001A41224205D02F0003
:1020A0005E00B7400268BA4302600133102BF2D1E0
:1020B000F0BDF0B50023012403260A001A41224294
:1020C00008D037005D00AF400268BA432700AF4038
:1020D0003A4302600133102BEFD1F0BDB8231B0649
:1020E000C0180123800A113080B28340024A51692E
:1020F0000B4353617047C04600100240F0B587B0F3
:1021000002930CAB1B78944603930DAB1B78013AFA
:102110000493B8231B06C3189B0A1133DBB2009348
:102120000023D2B201910592019A01211A410A427B
:1021300028D00E009E40009A15495400625A32433E
:102140006252032459008C40C268E743A243150041
:10215000039A8A401543C5600268A24364468C40D6
:1021600022430260059A012A0CD8029C42689C40D6
:10217000B243A4B22243426082683A40049F8F4037
:102180003A4382600133102BCED107B0F0BDC04678
:102190002C000020F0B585B01E000AAB1B780400AF
:1021A00002930BAB1B780D001700039300290BD093
:1021B000FFF794FF039B3A000193029B29000093D1
:1021C00020003300FFF79AFF05B0F0BD022373B57E
:1021D0000E001500019300230400290030000122A5
:1021E0000093FFF7D7FF2660A58073BD10B50400EC
:1021F0000068A18843698B434361FFF75AFFFA20C7
:102200004000FFF739FE2068A18843690B43436112
:10221000FFF73DFF4620FFF72FFE2368A4881B69C8
:10222000CD201C40631E9C414000E4B2FFF724FE19
:10223000200010BD10B504000A00A1880068CB433F
:10224000002A14D0426913404361FFF732FF0A208D
:10225000FFF712FE37202268A38851690B435361B0
:10226000FFF70AFEA1882068FFF711FF10BD426941
:1022700013404361FFF71DFF4120FFF7FDFD22687A
:10228000A388516905200B435361E9E710B50400A9
:102290000068A18843698B434361FFF70AFF02206E
:1022A000FFF7EAFD2068A18843690B434361FFF70C
:1022B000EEFE0A20FFF7E0FD2368A4881B693220A8
:1022C0001C40631E9C41E4B2FFF7D6FD200010BD08
:1022D000F8B506000D0009240127013CE4B2002CEA
:1022E00000D1F8BD290030003940FFF7A3FF6D0889
:1022F000F3E770B5060009250024013DEDB2002D7D
:1023000001D1200070BD3000FFF7C0FF6408C0019C
:102310000443E4B2F1E7002110B50822C180017244
:10232000093000F0D9F910BDF0B5037A040085B08A
:10233000002B03D1FFF75AFF051E04D00020E080D8
:10234000207205B0F0BD01273E00F0212000FFF70C
:10235000BFFF01952000FFF799FF03900290200036
:10236000FFF794FF039B012B0ED1012816D1402EBD
:10237000E4D9019BA371002B01D101332372637A4D
:10238000002BDBD00120DCE703996219537A8142EC
:1023900022D1A179B14217D91F4217D06219537ABD
:1023A0003B435372012302937F00200002990136C0
:1023B000FFB2FFF73FFFF6B2002FCBD10135EDB2F0
:1023C000082DD4D00127C5E7B142E7D000210196FE
:1023D0000291082E00D8E671BB435372E4E770B552
:1023E0000C00552126000500FFF772FF0836217802
:1023F00028000134FFF76CFFB442F8D170BD10B56E
:10240000FFF7EDFF10BD00230930C25CCA54013351
:10241000082BFAD17047F0B5742702004118012645
:1024200000207F428A4200D1F0BD082314780500C5
:1024300065404008354201D07840C0B2013BDBB274
:102440006408002BF3D10132ECE7000010221D4B91
:1024500019680A431A60012219680A431A60802227
:10246000194B520219680A431A60802292021968B5
:102470001142FCD0DA6A1549DA625A680A40F02142
:102480005A605A6889030A405A6088225968520380
:102490000A435A608022196852040A431A60802253
:1024A000920419681142FCD003215A688A435A6089
:1024B000022259680A430C215A605A680A40082AC5
:1024C000FBD170470020024000100240FFFFFEFFDA
:1024D00080221F4B010058699202024310B55A61D5
:1024E00080229869D20102439A619023A022DB05E1
:1024F0001868920302431A608822586A5200024305
:102500005A62144B4808C018FDF7FEFD124B1349E0
:10251000D8601A68C6240A401A600C221968802004
:102520000A431A6020221968A4000A430C491A6061
:102530000A5900061202120A02430A5180221205A9
:102540000A60012207490A7319680A431A6010BD1C
:1025500000100240006CDC0200380140FFCFFFFF9A
:1025600000E100E00000002010B5084B1B7B002BB1
:1025700004D04021064A0378002B00D110BDD46955
:102580000C42FCD09BB201301385F4E70000002020
:1025900000380140F7B501900020184B1B7B8342A7
:1025A00006D04C1E4027A446154B84B2A14200D849
:1025B000F7BD019C265C340925003035392D01D941
:1025C000373425000F24264034003034392C00D90C
:1025D0000734DE693E42FCD0ADB21D85DD693D4267
:1025E000FCD0A4B21C85002A06D0844504DDDC6939
:1025F0003C42FCD094B21C850130D6E7000000209C
:10260000003801400A4BDA88198891420FD2598864
:10261000914201D100225A80064A9868918C5A88CA
:1026200081545A8801325A801A8801321A807047C0
:102630000000002000380140704700000D4885462A
:10264000FFF7FAFF0C480D490D4A002302E0D45869
:10265000C4500433C4188C42F9D30A4A0A4C0023EC
:1026600001E013600432A242FBD300F011F8FFF73F
:1026700043FBFEE7001000200000002010000020B7
:10268000742800081000002084000020FEE70000ED
:1026900070B500260C4D0D4C641BA410A64209D148
:1026A000002600F021F80A4D0A4C641BA410A64233
:1026B00005D170BDB300EB5898470136EEE7B30083
:1026C000EB5898470136F2E76C2800086C280008A0
:1026D0006C2800087028000803008218934200D17B
:1026E000704719700133F9E7F8B5C046F8BC08BC6B
:1026F0009E467047F8B5C046F8BC08BC9E46704779
:102700003C0600080C0600080C0600080A06000833
:102710001006000810060008580700080A060008FE
:102720001006000858070008100600080A060008EE
:1027300004070008040700080407000894070008BD
:10274000C20C0008800C0008800C00087C0C0008FB
:10275000860C0008860C0008920F00087C0C00080C
:10276000860C0008920F0008860C00087C0C0008FC
:10277000260F0008260F0008260F0008FC0F00088F
:1027800053656E6420616E79206368617261637461
:102790006572206F6E2073657269616C20706F7254
:1027A00074210D0A005365616368696E67204453A4
:1027B00031384232302074656D70657261747572A3
:1027C000652073656E736F722E2E2E0D0A004465A0
:1027D0007669636520666F756E64206F6E20312D9B
:1027E000776972653A200049742773204453313861
:1027F0004232302074656D70657261747572652047
:1028000073656E736F72210D0A0049742773206E11
:102810006F7420445331384232302074656D7065D6
:102820007261747572652073656E736F72210D0A23
:10283000004E6F20646576696365206F6E204F6E71
:102840006557697265210D0A0074656D70203D2021
:102850000052656164696E67204572726F72210D66
:0C2860000A0064617461203D200000004B
:04286C00E900000877
:04287000C10000089B
:1028740000000000000040004200002000000000B2
:040000050800263D8C
:00000001FF
