:020000040800F2
:100000000010002081020008D1020008D10200087F
:1000100000000000000000000000000000000000E0
:10002000000000000000000000000000D1020008F5
:100030000000000000000000D1020008D10200080A
:10004000D1020008D1020008D1020008D102000844
:10005000D1020008D1020008D1020008D102000834
:1000600000000000D1020008D1020008D1020008FF
:10007000D1020008D1020008D102000800000000EF
:10008000D1020008D102000800000000D1020008DF
:10009000D1020008D1020008D1020008D1020008F4
:1000A000D1020008D1020008D1020008D1020008E4
:1000B000D1020008D102000800000000D1020008AF
:1000C00010B5064C2378002B07D1054B002B02D02E
:1000D000044800E000BF0123237010BD0000002091
:1000E000000000001C030008044B10B5002B03D0D7
:1000F0000349044800E000BF10BDC04600000000F6
:10010000040000201C03000880230F4ADB02516911
:100110000B430C2153610D4B1A688A431A60042269
:100120001868024302201A605A6882435A609A682B
:100130008A439A60DA688A43DA6080229969920277
:100140000A439A617047C04600100240000400480C
:1001500070B5FA2500F050F8022600F015F8FFF708
:10016000D3FF6D00074C2800A3693343A36100F05F
:1001700037F88023A2699B0213432800A36100F093
:100180002FF8EFE70004004880230C4A1B01916917
:100190000B4393612F220A4B0A499A620A4ADA6298
:1001A00000225A629A680A4001219A601A680A433A
:1001B0001A601A690A42FCD07047C046001002401B
:1001C000002C0140FFBFFFFFFFFF00000022034B98
:1001D0005A625A6A8242FCD97047C046002C0140DC
:1001E00070B5FA250400AD00002C00D170BD2800C8
:1001F000013CFFF7EBFFF7E710221D4B19680A439C
:100200001A60012219680A431A608022194B5202AF
:1002100019680A431A608022920219681142FCD0C0
:10022000DA6A1549DA625A680A40F0215A605A6857
:1002300089030A405A608822596852030A435A6067
:100240008022196852040A431A60802292041968B5
:100250001142FCD003215A688A435A60022259682D
:100260000A430C215A605A680A40082AFBD1704799
:100270000020024000100240FFFFFEFF7047000018
:100280000D488546FFF7FAFF0C480D490D4A00233B
:1002900002E0D458C4500433C4188C42F9D30A4A3B
:1002A0000A4C002301E013600432A242FBD300F0A9
:1002B00011F8FFF74DFFFEE70010002000000020BE
:1002C000000000203C030008000000201C0000206B
:1002D000FEE7000070B500260C4D0D4C641BA41009
:1002E000A64209D1002600F019F80A4D0A4C641BF9
:1002F000A410A64205D170BDB300EB589847013653
:10030000EEE7B300EB5898470136F2E734030008F4
:10031000340300083403000838030008F8B5C04669
:10032000F8BC08BC9E467047F8B5C046F8BC08BC8F
:040330009E4670472E
:04033400E9000008D4
:04033800C1000008F8
:04000005080002816C
:00000001FF
